:020000040000FA
:1000000080315B28080008007E1480314E01161EE6
:100010000A280B2813280C1E0E280F2813289431A9
:10002000F024803159280B1F1628172859281A1D2B
:100030001A281B282328101D1E281F282328943126
:100040009724803159289A1C262827282F28901C6D
:100050002A282B282F2893314D23803159281A1C08
:10006000322833283B28101C362837283B28943167
:10007000892480315928991E3E283F284A288F1EFE
:10008000422843284A28410151088A0050080A00A2
:1000900080315928191E4D284E2859280F1E5128E5
:1000A00052285928410153088A0052080A00803119
:1000B00059287E10090080315D285F30840093301C
:1000C0008500623086000030870006309331592366
:1000D0008031E030840094308500DA3086000030D2
:1000E00087001030933159238031FD014530840061
:1000F000003085001D30933153238031A0308400BF
:100100000030850022309331532380312030840029
:10011000013085004030933153238031A03084007A
:1001200001308500483093315323803120308400E2
:100130000230850020309331532380317E104001FE
:100140008E31E12E2D2A933165238031003A031937
:10015000AA28AB28C42894312A24803140012908D8
:100160004101A300400128084101A20040012708E5
:100170004101A100400126084101A0000230EA002F
:100180006A084001CF004E2A93316C238031003A37
:100190000319CB28CC284E2A94312A2480314001DF
:1001A00029084101A300400128084101A2004001A3
:1001B00027084101A100400126084101A0000430A8
:1001C000EA006A084001CF004E2A9331652380314E
:1001D000003A0319EC28ED282429410123084001A5
:1001E000A900410122084001A80041012108400165
:1001F000A700410120084001A6009531D325803198
:100200004001A91B11292908031D12292808031DD3
:1002100012292708031D1229C9302602031C11299F
:1002200012294E2ACF01CF0A0030B6000330B700A2
:100230006430B8000030B9006430BA000030BB0050
:100240009731DC2780314E2A4001CF014E2A93316D
:100250006C238031003A03192E292F2924294101CA
:1002600023084001A900410122084001A8004101E2
:1002700021084001A700410120084001A600953156
:10028000D32580314001A91B53292908031D542976
:100290002808031D54292708031D5429C9302602A4
:1002A000031C532954294E2A03304101EA006A08ED
:1002B0004001CF003030B6000030B7006430B800E5
:1002C0000030B9006430BA000030BB009731DC2741
:1002D00080314E2A933165238031003A031D712904
:1002E0007229772988313C2080314001CF01933138
:1002F0006C238031003A03197E297F294E2A03306E
:100300004001B6000030B7003230B8000030B9000C
:100310006430BA000030BB009731DC2780310530F3
:100320004101EA006A084001CF004E2A93316C2354
:100330008031003A031D9D299E29A3299631BE26AE
:1003400080314001CF01933165238031003A031998
:10035000AA29AB294E2A7F2923084001A90041017F
:1003600022084001A800410121084001A7004101E5
:1003700020084001A6009531D32580314001A91BFA
:10038000CE292908031DCF292808031DCF29A13014
:1003900026020F30273B031CCE29CF29E429333016
:1003A000B6000330B700F430B8000130B900F430C3
:1003B000BA000130BB009731DC27803106304101A3
:1003C000EA006A084001CF00933165238031003A8A
:1003D000031DEB29EC294E2A93316C238031003A1E
:1003E000031DF329F4294E2A9331F12380318631FC
:1003F0003726803194313424803124299331652388
:100400008031003A031D052A062A4E2A93316C23B7
:100410008031003A031D0D2A0E2A4E2A9331F12312
:1004200080318431AA2480319431342480314001D8
:10043000CF0194312A248031400129084101A300D1
:10044000400128084101A200400127084101A10004
:10045000400126084101A0004E2A40014F084101F9
:10046000EA00EB016B08003A0319372A4E2A6A08A2
:10047000003A0319A328013A03196A29033A031918
:10048000E528013A03199629073A03192729013A61
:100490000319AC29033A0319FE294E2A94313E244C
:1004A0008031003A0319552A562ABB2A8D3170250E
:1004B0008031400129084101EF0040012808410135
:1004C000EE00400127084101ED00400126084101EE
:1004D000EC00EF1B792A6F08031D782A6E08031DB4
:1004E000782A88306C0213306D3B0318782A792AF9
:1004F0008A2A00304001B6000130B7000230B8004F
:100500000030B9000130BA000030BB009731DC2761
:100510008031BB2AEF1B9A2A6F08031D992A6E08A7
:10052000031D992A98306C023A306D3B0318992AC2
:100530009A2AAB2A10304001B6000130B7000230D1
:10054000B8000030B9000130BA000030BB0097316C
:10055000DC278031BB2A10304001B6000030B700E4
:100560000230B8000030B9000130BA000030BB00E2
:100570009731DC278031080041016108B300600831
:10058000B2005F08B1005E08B00040015B080319CB
:10059000CA2ACB2AD62B0E19CE2ACF2A062B7D08A3
:1005A0000319D32AD42AF42A41012F08F3002E0874
:1005B000F2002D08F1002C08F0009531A7258231BA
:1005C000F31BEF2A7308031DF02A7208031DF02A9B
:1005D000E93070020330713B031CEF2AF02A082B2C
:1005E0004001DA01DA0A082B94310C2482317308B5
:1005F0004101AF007208AE007108AD007008AC0098
:10060000FD01FD0A96316C268231082BFD01DA01CD
:1006100040015A0803190D2B0E2B1D2B9531562521
:1006200082314001CD01CE014101B401B50140014B
:10063000CB01CC01C901CA01CE2B0E18202B212BD6
:10064000262B6508CE006408CD00382B0C19292B09
:100650002A2B362B6409A2006509A300A20A0319FC
:10066000A30A2208CD002308CE00382BCD01CE01ED
:100670008E183B2B3C2B582B4D084E04031D412B51
:10068000422B4A2B63084101B50040016208410139
:10069000B400932B41015B08B5005A08B400400137
:1006A00067084101B100400166084101B000932B89
:1006B0008C185B2B5C2B8C2B4D084E04031D612B7F
:1006C000622B712B6209A2006309A300A20A03191D
:1006D000A30A22084101B400400123084101B500EA
:1006E000932B41015A094001A20041015B094001DD
:1006F000A300A20A0319A30A22084101B400400181
:1007000023084101B500400167084101B1004001E3
:1007100066084101B000932B4101B401B5015D08A9
:10072000B1005C08B0008931C721823140014C081A
:10073000A3004B08A200230DA30CA20C230DA30CB5
:10074000A20C2208F8002308F9004A08A50049086D
:10075000A400250DA50CA40C250DA50CA40C2408A3
:10076000FA002508FB00FC01893140218231CE2BA3
:100770008831E82082312F3A031DBF2BC02BCE2BAE
:100780009531012582310030F3000030F2007530E0
:10079000F1003030F00094311624823193317C2303
:1007A0008231003A031DD52BD62BB82B080040010F
:1007B000C1003C080319DD2BDE2BE22B8831002021
:1007C0008331E52B9531682583315E304001B600D9
:1007D0009830B70096311D26833100304001B100BA
:1007E0000030B0000130AF002C30AE0088319120D5
:1007F000833100304001B1000030B0000030AF0064
:100800000A30AE0088319120833140013C08031941
:100810000A2C0B2C132C1230B6009830B7009631EE
:100820001D2683311A2C0930B6009830B700963156
:100830001D26833114304001BD003D08AE009030CC
:10084000AF000130B000C0308D31CC258331400184
:10085000BE003E08D8005B30AF009830B000C0301A
:100860008C317A248331003A031D372C382C3E2CEE
:1008700030304001BF000330C000432C3030400115
:10088000BF000030C0004008B7003F08B600643029
:10089000B8000030B900C830BA000030BB00973152
:1008A000DC27833124304001B6009830B700963100
:1008B0001D2683311E304001BD003D08AE00903042
:1008C000AF000130B000C0308D31CC258331400104
:1008D000BE003E08D8005530AF009830B000C030A0
:1008E0008C317A2483314001BD003D08C2004208AA
:1008F00003197B2C7C2C9A2C4208053EBD003D0838
:10090000A6000C30A7000030A80041088A31B022B0
:10091000833130304001B6000030B7006430B80099
:100920000030B900C830BA000030BB009731DC2776
:100930008331A92C0030B6000330B7006430B80012
:100940000030B900C830BA000030BB009731DC2756
:100950008331080003304001B6000030B700E830B2
:10096000B8000330B900C830BA000030BB0097317E
:10097000DC27843195317D25843100304001B6007B
:100980009630B70097311727843100304001B1000D
:100990000030B0000130AF00F430AE00883191205B
:1009A00084315E304001B6009830B70096311D2684
:1009B000843100304001B1000030B0000030AF00A1
:1009C0006430AE008831912084312D304001B60072
:1009D0009830B70096311D26843100304001B100B7
:1009E0000030B0000030AF006430AE00883191209C
:1009F000843100304001B6009830B70096311D2692
:100A0000843100304001B1000030B0000130AF004F
:100A1000F430AE0088319120843136304001B60088
:100A20009830B70096311D26843100304001B10066
:100A30000030B0000330AF00E830AE0088319120C4
:100A4000843180304001B6002530B7009731172738
:100A500084313F304001B6009830B70096311D26F2
:100A6000843110304001BC003C08AE006430AF005F
:100A70000030B000C0308D31CC2584314001BD0044
:100A80003D08D8005B30AF009830B000C0308C31EA
:100A90007A248431003A031D4E2D4F2D552D3030D0
:100AA0004001BE000330BF005A2D30304001BE006F
:100AB0000030BF003F08B7003E08B6006430B80001
:100AC0000030B900C830BA000030BB009731DC27D5
:100AD000843100304001B1000030B0000330AF007D
:100AE000E830AE0088319120843195316825843119
:100AF00008004001C3003C0803197F2D802D842D80
:100B0000883100208531872D953168258531003069
:100B10004001B1000030B0000330AF00E830AE005B
:100B20008831912085315E304001B6009830B700A1
:100B300096311D26853109304001BD003D08AE00CB
:100B40006430AF000030B000C0308D31CC2585312D
:100B50004001BE003E08D8005B30AF009830B000C6
:100B6000C0308C317A248531003A031DB82DB92D5F
:100B7000BF2D30304001BF000330C000C42D3030E5
:100B80004001BF000030C0004008B7003F08B60079
:100B90006430B8000030B900C830BA000030BB0083
:100BA0009731DC27853100304001B1000030B000C2
:100BB0000030AF000A30AE0088319120853140010D
:100BC000430886000130870001080319E82DE92D4C
:100BD000362E4830B6009830B70096311D26853144
:100BE00040014308AB000130AC000C30BD003D08B3
:100BF000AD00AE01AE0A8A31232285311C3040019E
:100C0000BD003D08AE00E830AF000330B000C0309A
:100C10008D31CC2585314001BE003E08D8005B30C7
:100C2000AF009830B000C0308C317A248531003A62
:100C3000031D1B2E1C2E222E00304001C10003304C
:100C4000C200272E30304001C1000030C2004208EF
:100C5000B7004108B6006430B8000030B900C830B1
:100C6000BA000030BB009731DC27853108008F3196
:100C70009C2786314001BC0154308331D723863113
:100C80004001BC01BC0A48308331D7238631400182
:100C9000BC01BC0A54308531792586314001BC0144
:100CA0004830853179258631953192258631BE2EA1
:100CB0004F304001B6009830B70096311D2686317E
:100CC00005304001C4004408AE00E830AF000330F6
:100CD000B000C0308D31CC258631053A031D712E10
:100CE000722EA22E4F304001AF009830B000C030BD
:100CF0008C317A248631003A03197F2E802E912E72
:100D000033304001B6000030B7000430B800003086
:100D1000B9000130BA000030BB009731DC278631C2
:100D2000B22E00304001B6000330B7000430B800E6
:100D30000030B9000130BA000030BB009731DC2729
:100D40008631B22E30304001B6000330B700043097
:100D5000B8000030B9000130BA000030BB00973154
:100D6000DC27863100304001B1000030B000003097
:100D7000AF003230AE008831912086319331652347
:100D80008631003A031DC52EC62ECE2E93316C231C
:100D90008631003A0319CD2ECE2E582E9531682576
:100DA000863100304001B1000030B0000330AF00A8
:100DB000E830AE0088319120863108004001AE0055
:100DC0002E08AA002A08AF0028082904031DE92ECE
:100DD000EA2EEB2E822F2608AA002F088600870114
:100DE0002A0881002608AA0028082F07AB002B0834
:100DF000FF3E860087012A08810000302902033067
:100E0000031928020318052F062F072F822F260803
:100E1000AA002F0A860087012A0881002608AA0056
:100E20002F08023E860087012A0881002608AA00B2
:100E300028082F07AB002B08FE3E860087012A08F2
:100E400081002608AA0028082F07AB002B08FD3ECA
:100E5000860087012A088100003029020730031923
:100E600028020318342F352F362F822F2608AA0088
:100E70002F08033E860087012A0881002608AA0061
:100E800028082F07AB002B08FC3E860087012A08A4
:100E90008100003029020930031928020318512F5C
:100EA000522F532F822F2F09AA003009AB00AA0A14
:100EB0000319AB0A03302A05AC0000302B05AD0046
:100EC0002C08AA002A08AF072C08A8022D08A93B65
:100ED000FC30A805FF30A9057C2F2608AA002F08A2
:100EE000860087012A0881000130A8020030A93B52
:100EF0000130AA002A08AF0728082904031D812F02
:100F0000822F6D2F08004001B701B7013708B600E6
:100F10003608D3000030B1000030B0000030AF0020
:100F20002830AE0088319120873101304001B60071
:100F30003608B7073708803A793E031CA02FA12F47
:100F4000862FD301B7013708B6003608D20000302B
:100F5000B1000030B0000030AF002830AE00883162
:100F60009120873101304001B6003608B7073708B5
:100F7000803A793E031CBD2FBE2FA32FD201B701AB
:100F80003708B6003608D1000030B1000030B0009C
:100F90000030AF002830AE00883191208731013019
:100FA0004001B6003608B7073708803A793E031C7F
:100FB000DA2FDB2FC02FD1010030A9000030A800AC
:100FC0002730A7001030A60095314525873108004D
:100FD0000130450190008F019101F9308D008C01A5
:100FE0004E0190109A1403304001A6000030A70073
:100FF0009331D6238731C03045018E0008000800A8
:1010000013307D01CB000F307E01A6001430A40008
:1010100000304001B1000030B0000030AF000530BA
:10102000AE00883191208831080000304001A600D0
:10103000A7000C30A8000030A900B6308631DE26AB
:1010400088312F304001B00030084101B600043033
:101050004001B00030084101B700B80186304001BE
:10106000B00030084101B900BA010A304001B000B7
:1010700030084101C100080003304001A6000030E3
:10108000A7005608013EA800003003180130A9004F
:101090008D311C25883140012608C1004108D60049
:1010A0005608C1004108AB00013094317C248831DE
:1010B00030304001BC000330BD005608013EC10085
:1010C0004108BE009631DB2688310800F10040015E
:1010D000680803196C286D2867284E01191A7128B1
:1010E00072287628710842019A008E281912710818
:1010F000F00040016108A03E8600013087007008C2
:1011000081000130F0007008E10720306102031C0B
:101110008A288B288C28E1010130E8024E0119163B
:10112000080094312A24883140012908B500280894
:10113000B4002708B3002608B2003508A900340817
:10114000A8003308A7003208A6009531D3258831BE
:10115000400131082902031DB72830082802031D69
:10116000B7282F082702031DB7282E082602031CC4
:10117000BA28BB289D2808007508031DC028C1286F
:10118000DF284001680874020318C728C828E62829
:10119000DF28933173238831003A0319D028D128EE
:1011A000C928720884007308850000088831662009
:1011B00088310130F2070030F33D0130F402740849
:1011C000031DE328E428C9280130E728003008007F
:1011D00040015D080319ED28EE28E8285E08203E4E
:1011E0008600013087000108F0007008DC005E080E
:1011F000203E8600023087000108F0007008F100F0
:101200000130F0007008DE0720305E02031C09295F
:101210000A290B29DE014E01991201304001DD023D
:101220004E019916710808004001A70068080319CB
:101230001A291B2916294E01191A1F292029252987
:101240004001270842019A003D2919124001270850
:10125000A6006108A03E86000130870026088100B4
:101260000130A6002608E10720306102031C39295D
:101270003A293B29E1010130E8024E011916080024
:101280007908F1007808F000BB304001A000200888
:10129000F2008931F52189317B08F1007A08F000EC
:1012A000BD304001A0002008F2008931F5218931CC
:1012B000B6308E3184268931B630F2000030F3002A
:1012C0000C304001A0002008F4007C08A100210897
:1012D000F5008831BC208931080040013008A700A2
:1012E0002F08A600BB30B4003408A8008A31802241
:1012F000893140013208A7003108A600BD30B40092
:101300003408A8008A3180228931B6308F313E27D7
:101310008931B6304001AB000030AC000C30B40075
:101320003408AD003308B5003508AE008A312322F9
:101330008931080040015D0803199F29A0299A29D5
:101340005E08203E8600013087000108A6002608BE
:10135000DC005E08203E8600023087000108A600FF
:101360002608A7000130A6002608DE0720305E020E
:10137000031CBB29BC29BD29DE014E019912013095
:101380004001DD024E019916400127080800400186
:101390004E08F1004D08F0004C08F3004B08F20035
:1013A00041013308F5003208F4008C31C82489313A
:1013B00071084001CC007008CB0041013508F100F4
:1013C0003408F00040014A08F3004908F2004101E6
:1013D0003108F5003008F4008C31C82489317108D7
:1013E0004001CA007008C9000800F601F701700842
:1013F000F300720886008701730881000130F30052
:101400007308F2077108F4007008F3000830F50063
:10141000740DF40CF30CF50B082A7308F000740833
:10142000F1000130F6070030F73D7708803AF3000D
:1014300080307302031D1E2A02307602031C212A0B
:10144000222AF729080040012E08031D282A292AEC
:10145000482A68082D0203182E2A2F2A4F2A482AC4
:101460009331E8238A31003A0319372A382A302A7F
:1014700040012B0884002C088500000889311421C4
:101480008A3101304001AB070030AC3D0130AD0284
:101490002D08031D4C2A4D2A302A0130502A0030D5
:1014A00008004001AA002A08A8002808A900500145
:1014B0009E185B2A5C2A572A1E17400126085001F5
:1014C0009A0070309B00772A50011E141C084001BE
:1014D000A800290886008701280881000130A8009B
:1014E0002808A9070130A800280850019A070130F0
:1014F0004001A702270A031D7E2A7F2A642A0800CA
:101500004001AC01AD0140012608A9002808860071
:101510008701290881000130A9002908A8072708A8
:10152000AA002608A9000830AB002A0DAA0CA90CB5
:10153000AB0B952A2908A6002A08A7000130AC07A2
:101540000030AD3D2D08803AA90080302902031DEE
:10155000AB2A02302C02031CAE2AAF2A832A0800D1
:101560004001AB002608A9002908AD002B08A900FE
:101570002908AC00D32A2D08860001308700010815
:10158000A9002908AA000130A9002908AD072A08E6
:10159000A9002C088600013087002908810001304D
:1015A000A9002908AC070130A7020030A83B270A90
:1015B000031DDE2A280A031DDE2ADF2ABB2A0800B3
:1015C00040015008013E0F39F0007008D00050086B
:1015D000031DEB2AEC2A052B53080319F02AF12AE4
:1015E000F32A1913F42A191752080319F82AF92AA9
:1015F000FB2A9912FC2A991651080319002B012B7A
:10160000032B19121A2B19161A2B53085002031CFC
:101610000A2B0B2B0C2B191752085002031C112BF1
:10162000122B132B991651085002031C182B192B3F
:101630001A2B1916080040015F08203E8600013071
:101640008700810142011D1D262B272B342B4001D1
:101650005F08203E860001308700811441014F0859
:101660008A004E080A008B3142019D1C382B392B11
:10167000462B40015F08203E86000130870001159F
:1016800041014D088A004C080A008B3140015F0877
:10169000203E86000130870001080319502B512B92
:1016A000582B41014B088A004A080A008B315B2BFA
:1016B000963151268B3108004E0199121B304001A2
:1016C000A6000B30A7009331A0238B314E011912D5
:1016D000B9304001A6001730A7009331A9238B3100
:1016E000083042019F0090309D0024309E006730FA
:1016F0009B009C0130304001A6001330A7009331BD
:101700008E238B3140304001A6001330A700933167
:1017100097238B313C304001A6001330A700933152
:1017200085238B314001DC01E101E0012030A8007C
:101730002808E800DF01DE01DD014E0199160800EE
:101740004001D301D201D101D001CF0194312A242B
:101750008B31400129084101A300400128084101C3
:10176000A200400127084101A100400126084101D3
:10177000A0004001D40119179916191601309431AF
:10178000D1248B314001AE002E08D60000309431B8
:10179000D1248B314001AE002E08D500E030A600E8
:1017A0000A30A7009331DF238B3103304001A600BC
:1017B0001430A7009331BB238B3103304001A600C6
:1017C0001430A7009331C4238B310800203040012E
:1017D00098007030990050309A001F30920080308D
:1017E0009300AF30940080307E01CE00C301013001
:1017F000B800F030C4001630B9005730CF00BA013D
:10180000C501D0013730BB00F030C600FF30D10039
:101810003F30BC00F030C700FF30D20055105511EA
:10182000541454155310531132304001A600133094
:10183000A7009331BB238B3131304001A600133018
:10184000A7009331C4238B314E0116160F307E0151
:10185000A40015307D01CB0008004001AA00260835
:10186000A8002808A90050019E18372C382C332CCA
:101870001E1740012A08FF3E50019A0070309B005D
:101880009D01712C50019E18462C472C422C400182
:10189000290886008701010850019C0001304001A1
:1018A000A8002808A9070130A800280850019A07B5
:1018B000400103108B1F5D2C5E2C5F2C0314500124
:1018C0001E1555309F00AA309F009E149E18692C4B
:1018D0006A2C662C1E114001031C6F2C702C712C7D
:1018E0008B1701304001A702270A031D782C792CA1
:1018F000422C08004001B6002F0830040319812C47
:10190000822CC62C3008A7002F08A600963103268B
:101910008C3140012708B5002608B400B82C3008E7
:10192000A7002F08A6003508A9003408A80036082B
:101930008E3128268C31400126082704031DA12C56
:10194000A22CA42C3608C72C2F0884003008850050
:101950000008B100B2013108A6003208A70036081D
:10196000013E963137268C314001B3003308B60072
:1019700036080319BC2CBD2CC62C36088600013055
:1019800087000108031DC52CC62C8F2C00300800D1
:1019900072087002FB007308713BFC007108FA00CA
:1019A0007008F90070087104031DD72CD82CDD2CA9
:1019B0000130F435F50D890BD92C74087504031D1D
:1019C000E22CE32CE72C0130F4000030F500750820
:1019D000803AF6007C08803A7602031DF12C7B08E1
:1019E00074020318F42CF52CFC2C74087207F9000F
:1019F0007508733DFA00172D7409F6007509F70094
:101A0000F60A0319F70A7C08803AF8007708803A4A
:101A10007802031D0D2D76087B020318102D112D61
:101A2000172D74087202F9007508733BFA007A08E2
:101A3000F1007908F00008004001AC01A91F212D38
:101A4000222D292DA809A909A80A0319A90AAC0160
:101A5000AC0AA71F2C2D2D2D322DA609A709A60AE9
:101A60000319A70A260827040319372D382D612DDD
:101A7000AB01AB0A442D0130A635A70D890B3C2DD7
:101A80000130AA002A08AB07A71F472D482D3B2D80
:101A900027082902031D4E2D26082802031C512D5C
:101AA000522D562D2608A8022708A93B0130A7363B
:101AB000A60C890B572D0130AB02031D602D612D43
:101AC000482D2C080319652D662D6B2DA809A90931
:101AD000A80A0319A90A2908A7002808A6000800CF
:101AE0004101280840014502AA004101290840019E
:101AF000463BAB0041012A084001473BAC00410195
:101B00002B084001483BAD002D08B1002C08B00067
:101B10002B08AF002A08AE0041012708400131021E
:101B2000031DA22D4101260840013002031DA22DF4
:101B30004101250840012F02031DA22D4101240867
:101B400040012E02031CA52DA62DAF2D0030A900AB
:101B50000030A8000030A7000030A600CB2D2E08D2
:101B6000410124024001AA002F084101253B400108
:101B7000AB0030084101263B4001AC003108410177
:101B8000273B4001AD002D08A9002C08A8002B0818
:101B9000A7002A08A60008004001BB0094312A24AF
:101BA0008D3140012908B9002808B8002708B7007E
:101BB0002608B600BA01F72D9331FA238D31003A89
:101BC0000319E32DE42DF72D89319A218D31400140
:101BD000B1003B08860001308700310881000130E8
:101BE000B1003108BB070130B1003108BA0740012C
:101BF0002E083A020318FD2DFE2D262E3908A900C5
:101C00003808A8003708A7003608A6009531D32564
:101C10008D3140012F08B1003008B200B301B4018A
:101C20003408803AB5002908803A3502031D222E77
:101C300028083302031D222E27083202031D222EFC
:101C4000260831020318252E262EDC2D3A0808001E
:101C50004001AB002B08AA002A08AE002708AD00FF
:101C60002608AC000130A8020030A93B280A031D59
:101C70003D2E290A031D3D2E3E2E4D2EA601A70105
:101C8000832E0130AA002A08AE070130AC070030CD
:101C9000AD3D0130A8020030A93B2E08860001307E
:101CA000870001080319552E562E752E2C08840026
:101CB0002D088500120003195E2E5F2E752E280850
:101CC00029040319642E652E752E2C0884002D0816
:101CD00085000008AA002E08860001308700010850
:101CE0002A060319742E752E412E2E088600013007
:101CF00087002C0884002D08850000080102A6003A
:101D0000A701031CA7030800F500750A86008701D8
:101D10000108053EF0007008F400F601F701C22E3C
:101D20007508860087010108F000F1017008F100D4
:101D3000F00176087006F60077087106F7000130AA
:101D4000F0007008F5070830F0007008F300F71F86
:101D5000AA2EAB2EB82E7708F1007608F000F035E9
:101D6000F10D21307006F60010307106F700BC2E20
:101D70007635F600770DF7000130F302031DC12E12
:101D8000C22EA72EFF30F0007008F407F41FC92EF2
:101D9000CA2E902E7608F00075088600870170081C
:101DA00081000130F0007008F5077708F000750831
:101DB00086008701700881000130F0007008F50787
:101DC00008009531BD258E319631A2268E3188319D
:101DD00015208E319431A5248E318B31A0238E3184
:101DE0008B170B17943149248E31943103248E3193
:101DF000873183278E3100304001B1000030B000C0
:101E00000330AF00E830AE00883191208E3194313C
:101E100034248E318031A2208E318D3170258E3167
:101E200040012908280427042604031D182F192F10
:101E30002F2F933144238E319631F9268E31630052
:101E40000000933133238E31003A0319282F292FB4
:101E5000212F873183278E31953134258E31003003
:101E60004001B1000030B0000030AF003230AE00B1
:101E7000883191208E310A2F80315B284001AB00E0
:101E80002B0A860087010108053EA6002608AA0045
:101E9000AC01AD017D2F2B08860087010108A6004B
:101EA000A7012608A700A6012C082606AC002D08CD
:101EB0002706AD000130A6002608AB070830A600B3
:101EC0002608A900AD1F652F662F732F2D08A700C8
:101ED0002C08A600A635A70D21302606AC00103030
:101EE0002706AD00772F2C35AC002D0DAD0001304D
:101EF000A902031D7C2F7D2F622FFF30A60026082C
:101F0000AA07AA1F842F852F4B2F2C08A6002B0869
:101F100086008701260881000130A6002608AB074D
:101F20002D08A6002B0886008701260881000130B5
:101F3000A6002608AB07080095317D258F3180303B
:101F40004001B6002530B700973117278F315E303A
:101F50004001B6009830B70096311D268F31003011
:101F60004001B1000030B0000030AF006430AE007E
:101F7000883191208F311B304001B6009830B70076
:101F800096311D268F3100304001B1000030B00085
:101F90000030AF00FA30AE00883191208F315E30D2
:101FA0004001B6009830B70096311D268F310030C1
:101FB0004001B1000030B0000130AF00F430AE009D
:101FC000883191208F3136304001B6009830B7000B
:101FD00096311D268F3100304001B1000030B00035
:101FE0000130AF00F430AE00883191208F310030E5
:101FF0004001B6009630B700973117278F3108009F
:1026600008000800080040015708080044010E1047
:10267000080044010E1408009631512693310800D9
:1026800042011D121D16080040019816D7010800CE
:1026900040019812D701D70A08004E0190109431DA
:1026A000622493310800640080010131890B542BAE
:1026B0000034FE0012001E00FE0B5A2B00341834AA
:1026C0000134D03407340A340034031040018D1F24
:1026D00003140030093D0800031040010C1E0314D0
:1026E0000030093D080040016808031D782B7A2B53
:1026F00001307B2B0030080040015D08031D812B59
:10270000832B0130842B0030080040012708410151
:10271000CB00400126084101CA00080040012708FB
:102720004101CF00400126084101CE0008004001D0
:1027300027084101CD00400126084101CC000800D6
:10274000400127084101D100400126084101D00085
:102750000800400127084101D3004001260841013B
:10276000D2000800603051018D008F0191010530C9
:10277000930092010800400127084101C90040016F
:1027800026084101C8000800400127084101C70090
:10279000400126084101C600080040012708410108
:1027A000D700400126084101D60008004001270853
:1027B0004101D500400126084101D4000800400134
:1027C00027084101C300400126084101C20008005A
:1027D00040016808031DED2BEF2B0130F02B00307A
:1027E00008009331362393314001DB0193313623C6
:1027F0009331080040015D08031DFF2B012C0130BF
:10280000022C003008007E1C072C9331482B40011D
:102810009812D701D70A080040014808F30047087A
:10282000F2004608F1004508F00008007308410175
:10283000A7007208A6007108A5007008A40008008F
:102840004F0196019701980199019A019B019C0102
:102850009D01080040014808A9004708A800460853
:10286000A7004508A60008004001DB01DB0A9531FE
:1028700034259431933139239431080040015908AB
:102880000319432C442C472CD9010130482C00302B
:10289000080000304001B6009630B7009731172786
:1028A0009431953168259431080041015608570448
:1028B00003195B2C5C2C612C57088A0056080A000F
:1028C000943108004101540855040319682C692CFF
:1028D0006E2C55088A0054080A0094310800410102
:1028E000420843040319752C762C7B2C43088A007C
:1028F00042080A00943108004001AD002B30AC00C2
:102900002C08A600A701A70A2D088C312D2494318C
:1029100008004E01101041015908F1005808F0005C
:1029200095311225943194315524943108004E018B
:10293000101141014508F1004408F00095312325AC
:10294000943194316F2494310800BC304001A600CA
:102950000230A7009331CD2394314001DB01963141
:102960008726943108004101480849040319B92C0D
:10297000BA2CBF2C49088A0048080A0094317E010D
:10298000551008004101460847040319C82CC92CFA
:10299000CE2C47088A0046080A0094317E01551162
:1029A00008004001AC002C08AB002B08A600A701D2
:1029B000A70A2D308A315122943140012D08080098
:1029C000C8340034C834003414340034783400344B
:1029D0002F3400340034FF340034003400340A341F
:1029E0007E01551CF42CF52CF82C9431B324943131
:1029F0007E01551DFC2CFD2C002D9431C2249431F8
:102A00000800400148084101AB004001470841016E
:102A1000AA00400146084101A900400145084101C2
:102A2000A800080044010E1D162D172D1E2D0E1096
:102A300071088D0070088C000E14222D71088D0015
:102A400070088C0008004401141D272D282D2F2DFF
:102A5000141071089300700892001414332D71083B
:102A60009300700892000800400148084101AB0043
:102A7000400147084101AA00400146084101A90060
:102A8000400145084101A800080040012908410112
:102A9000A700400128084101A60040012708410184
:102AA000A500400126084101A4000800E2308E3153
:102AB00084269531E230F2000030F3000830F8004F
:102AC0007808F400F501F50A8831BC20953108003A
:102AD00015307D01CB000F307E01A4001630A6001A
:102AE00000304001B1000030B0000030AF000530D0
:102AF000AE00883191209531080015307D01CB0062
:102B00000F307E01A4000F30A60000304001B1005C
:102B10000030B0000030AF000530AE0088319120A9
:102B20009531080013307D01CB000F307E01A400E9
:102B30001630A60000304001B1000030B000003077
:102B4000AF000530AE008831912095310800700843
:102B500040014502F4007108463BF5007208473B0E
:102B6000F6007308483BF7007708F3007608F20098
:102B70007508F1007408F0000800943120249531A4
:102B80008B31E62395319331B223953197317727F5
:102B900095318731E82795319731562795318B311B
:102BA0005C2395310800400126084502AA00270849
:102BB000463BAB002808473BAC002908483BAD002A
:102BC0002D08A9002C08A8002B08A7002A08A60099
:102BD0000800400126080F39A8002808D10027085E
:102BE000A9002608A8000430A936A80C890BF42DEA
:102BF00028080F39AA002A08D20027080F39A80090
:102C00002808D300080040012708AA002608A900C8
:102C10000D2E0130A6070030A73D260884002708A6
:102C200085001200031D152E162E092E29082602D6
:102C3000A6002A08273BA70008009731982796315D
:102C400040013708AC003608AB003708A70036084B
:102C5000A60096310326963140012608B8003808B0
:102C6000AD00AE01AE0A8A31232296310800400140
:102C7000A800280886000130870001082606031DE9
:102C8000422E432E452E2808502E2808860001305B
:102C90008700A80A0108031D4E2E4F2E392E003042
:102CA000080042011908F00040015F08203E86003C
:102CB00002308700700881000130F0007008DF07E3
:102CC00020305F02031C652E662E672EDF01013067
:102CD000F0007008DD0708004001CD01CE01410180
:102CE000B401B5014001CB01CC01C901CA015B08A7
:102CF00003197B2E7C2E862E0030F800F900003060
:102D0000FA00FB00FC0189314021963108004001A6
:102D1000CD01CE014101B401B5014001CB01CC018F
:102D2000C901CA015B080319962E972EA12E003007
:102D3000AF00B0000030B100B200B30189316D21A5
:102D40009631080000304001C8000030C700003054
:102D5000C6000030C50000304101AB000030AA00C1
:102D60000030A9000030A8004001D9013630A6008B
:102D70001730A7009331D62396310800400155083B
:102D8000013E0139C1004108D5005508C100410884
:102D9000AB00003094317C24963133304001BC00CC
:102DA0000030BD005508013EC1004108BE0096310B
:102DB000DB26963108004001C001F22E3D08B70025
:102DC0003C08B6006430B8000030B9009030BA005A
:102DD0000130BB009731DC27963101304001BF0044
:102DE0003F08C0073E084002031CF72EF82EDE2ED7
:102DF000080007304001B6003608B7003708B600B3
:102E00003608D3000030B1000030B0000030AF0011
:102E10002830AE00883191209631FF304001B60055
:102E20003608B707B71F152F162FFE2E080096304D
:102E3000400137063604031D1E2F1F2F242F673035
:102E400042019B009C01292FA03042019B000130D0
:102E50009C0000304001B1000030B0000030AF00F5
:102E6000C830AE0088319120973108000130400110
:102E7000C5070030C63D0030C73D0030C83DFF30BB
:102E80004505F00003304605F10000304705F2002B
:102E900000304805F3007308720471047004031DC8
:102EA000522F532F552FD901D90A080044018F0101
:102EB000900106309100F9308D00E5308C004E0114
:102EC000101044010D084101D90044010C084101D2
:102ED000D8004E011A1402304001A6000030A700AD
:102EE0009331CD239731013044018E000800440115
:102EF0009501960101309700FF3093000630920053
:102F00004E011011440113084101C500440112088B
:102F10004101C4004E011A15FF304001A6000730E0
:102F2000A7009331DF239731053044019400080056
:102F3000B02F89319A2197319331FA239731003A92
:102F4000031DA32FA42FB02F00304001B10000308B
:102F5000B0000030AF000530AE00883191209731CD
:102F60009331FA239731003A031DB72FB82F992FC9
:102F700008002030400168020318BF2FC02FD92F4E
:102F80006008A03E860001308700010842019A00D7
:102F90000130F00070084001E00720306002031C9F
:102FA000D22FD32FD42FE0010130F0007008E807B2
:102FB000DB2F4E011912080040013708A700360820
:102FC000A6009531E925973140013808AE0039084F
:102FD000AF00B001B101883191209731003040013C
:102FE000A600A7009531E925973140013A08AE00C7
:102FF0003B08AF00B001B101883191209731080042
:10300000413454342B344234413455344434303414
:103010000034413454342B3452344F344C3445341E
:1030200030340034413454342B3452344F344C3423
:10303000453431340034413454342B344234413437
:103040005534443432340034413454342B34413414
:103050004434443452343F340034413454342B34F7
:1030600043344C34453441345234003441345434C4
:103070002B345234453453344534543400344134C1
:1030800054342B34523445344E34453457340034A0
:10309000413454342B3443344F344E3400344834A8
:1030A0005534473453340A340034413444344434BE
:1030B00052343A3400344F344B34003441345434B5
:0230C0000034DA
:020000040001F9
:0A000E00EC3FFF379F3FFF3FFF3F2D
:04E00000000000001C
:00000001FF
