:020000040000FA
:1000000080315B28080008007E1480314E01161EE6
:100010000A280B2813280C1E0E280F2813289B31A2
:10002000A423803159280B1F1628172859281A1D78
:100030001A281B282328101D1E281F2823289B311F
:100040004B23803159289A1C262827282F28901CBA
:100050002A282B282F289931FB21803159281A1C56
:10006000322833283B28101C362837283B289B3160
:100070003D2380315928991E3E283F284A288F1E4B
:10008000422843284A28420163088A0062080A007D
:1000900080315928191E4D284E2859280F1E5128E5
:1000A00052285928410153088A0052080A00803119
:1000B00059287E10090080315D28593084009B301A
:1000C0008500DA308600003087000E309A312B220E
:1000D0008031F8308400873085006430860001303C
:1000E000870008309A312B2280313B308400003069
:1000F00085001A309A3125228031A03084000030EA
:1001000085002A309A312522803120308400013048
:1001100085003C309A3125228031A03084000130A6
:10012000850048309A312522803120308400023009
:10013000850040309A31252280317E104001953172
:10014000BF2DF8299A3131228031003A0319A928AC
:10015000AA28BD289B31E823803141016B08A30008
:100160006A08A2006908A1006808A00002304401E2
:10017000EE006E084001C300192A9A3138228031FE
:10018000003A0319C428C528192A9B31E823803175
:1001900041016B08A3006A08A2006908A100680871
:1001A000A00004304401EE006E084001C300192A8B
:1001B0009A3131228031003A0319DF28E0281229D0
:1001C00041012308EB002208EA002108E900200889
:1001D000E8009D31D12580314101EB1BFD286B08E2
:1001E000031DFE286A08031DFE286908031DFE285A
:1001F00065306802031CFD28FE28192A00304401DE
:10020000E0000330E1001430E2000030E30064302D
:10021000E4000030E5009031EE2080314001C30160
:10022000C30A192A4001C301192A9A3138228031A0
:10023000003A03191C291D29122941012308EB004A
:100240002208EA002108E9002008E8009D31D125B4
:1002500080314101EB1B3A296B08031D3B296A08D9
:10026000031D3B296908031D3B2965306802031CF7
:100270003A293B29192A30304401E0000030E100DE
:100280001430E2000030E3006430E4000030E500A8
:100290009031EE20803103304401EE006E084001C1
:1002A000C300192A9A3131228031003A031D59299D
:1002B0005A295F299331072380314001C3019A31C4
:1002C00038228031003A031966296729192A033038
:1002D0004401E0000030E1003230E2000030E30091
:1002E0006430E4000030E5009031EE2080310530CC
:1002F0004401EE006E084001C300192A9A313822E9
:100300008031003A031D852986298B2990311620DA
:1003100080314001C3019A3131228031003A031902
:1003200092299329192A672941012308EB00220801
:10033000EA002108E9002008E8009D31D12580313C
:100340004101EB1BB0296B08031DB1296A08031D8D
:10035000B129A13068020F30693B031CB029B129D3
:10036000C72933304401E0000330E100F430E200FB
:100370000130E300F430E4000130E5009031EE207C
:10038000803106304401EE006E084001C3009A310E
:1003900031228031003A031DCE29CF29192A9A3102
:1003A00038228031003A031DD629D729192A9A31DB
:1003B000992280318D31322580319A31D22280319B
:1003C00012299A3131228031003A031DE829E929A6
:1003D000192A9A3138228031003A031DF029F12977
:1003E000192A9A3199228031833163238031DD29A2
:1003F000400143084401EE00EF016F08003A031981
:10040000022A192A6E08003A0319A228013A031990
:100410005229033A0319D828013A03197E29073AC9
:1004200003191529013A03199429033A0319E129FB
:10043000192A9A31E6228031003A0319202A212A0A
:100440007C2A97319C2780314101EB1B352A6B08B0
:10045000031D342A6A08031D342A883068021330C9
:10046000693B0318342A352A462A00304401E0004B
:100470000230E1000230E2000030E3000130E4002D
:100480000030E5009031EE2080317C2A9E310D262F
:1004900080314101EB1B5A2A6B08031D5B2A6A0855
:1004A000031D5B2A6908031D5B2AFB306802031CDD
:1004B0005A2A5B2A6C2A10304401E0000130E10026
:1004C0000230E2000030E3000130E4000030E500DB
:1004D0009031EE2080317C2A10304401E000003061
:1004E000E1000230E2000030E3000130E4000030BF
:1004F000E5009031EE20803108004401EA0043011C
:100500006F080319842A852A892A9C316A2482313A
:100510008C2A9A31872282315E304301EC00A03070
:10052000ED009F319127823100304201EF00003011
:10053000EE000130ED002C30EC009331BB23823112
:1005400000304201EF000030EE000030ED000A30D4
:10055000EC009331BB23823143016F080319B12AA8
:10056000B22ABA2A1230EC00A030ED009F31912758
:100570008231C12A0930EC00A030ED009F31912773
:10058000823114304401E60066084201EC009030EC
:10059000ED000130EE00C0308931E72182314401A5
:1005A000E70067084101C7005B30ED00A030EE00B6
:1005B000C03096311C268231003A031DE02AE12A20
:1005C000E72A30304401E8000330E900EC2A3030FB
:1005D0004401E8000030E9006908E1006808E00033
:1005E0006430E2000030E300C830E4000030E50091
:1005F0009031EE20823100304201EF000030EE00F9
:100600000030ED000A30EC009331BB2382312430FE
:100610004301EC00A030ED009F31912782311E3064
:100620004401E60066084201EC009030ED00013024
:10063000EE00C0308931E72182314401E7006708CC
:100640004101C7005530ED00A030EE00C0309631BA
:100650001C2682314401E6006608EB006B08031992
:10066000322B332B532B6B08053EE6006608410105
:10067000E8000C30E9000030EA0044016A089231D9
:100680000722823130304401E0000030E100643064
:10069000E2000030E300C830E4000030E5009031B3
:1006A000EE208231622B0030E0000330E100643044
:1006B000E2000030E300C830E4000030E500903193
:1006C000EE208231080003304401E0000030E100F8
:1006D000E830E2000330E300C830E4000030E50019
:1006E0009031EE2083319C3140248331003043012E
:1006F000EC009630ED009D31EF2583310030420152
:10070000EF000030EE000130ED00F430EC009331EA
:10071000BB2383315E304301EC00A030ED009F31FC
:100720009127833100304201EF000030EE000030AD
:10073000ED006430EC009331BB2383312D30430155
:10074000EC00A030ED009F31912783310030420151
:10075000EF000030EE000030ED006430EC0093312B
:10076000BB23833100304301EC00A030ED009F310A
:100770009127833100304201EF000030EE0001305C
:10078000ED00F430EC009331BB238331363043016C
:10079000EC00A030ED009F31912783310030420101
:1007A000EF000030EE000330ED00E830EC00933154
:1007B000BB23833180304301EC002530ED009D31B7
:1007C000EF2583313F304301EC00A030ED009F3135
:1007D0009127833110304401E60066084201EC00A5
:1007E0006430ED000030EE00C0308931E721833104
:1007F0004401E70067084101C7005B30ED00A0300D
:10080000EE00C03096311C268331003A031D092CBE
:100810000A2C102C30304401E8000330E900152C7C
:1008200030304401E8000030E9006908E100680860
:10083000E0006430E2000030E300C830E400003043
:10084000E5009031EE20833100304201EF000030AE
:10085000EE000330ED00E830EC009331BB23833130
:100860009A318722833108004201EC006C08410173
:10087000EC006C084201EF0041016A086B04031DA3
:10088000422C432C442C042D6808EC0042016F08D4
:1008900086000130870041016C0881006808EC0087
:1008A0006A0842016F074101ED006D08FF3E8600B6
:1008B000013087006C08810000306B02033003199F
:1008C0006A020318642C652C662C042D6808EC0061
:1008D00042016F0A86000130870041016C088100E7
:1008E0006808EC0042016F08023E86000130870074
:1008F00041016C0881006808EC006A0842016F073A
:100900004101ED006D08FE3E8600013087006C0855
:1009100081006808EC006A0842016F074101ED00A0
:100920006D08FD3E8600013087006C0881000030B4
:100930006B02073003196A0203189F2CA02CA12C0C
:10094000042D6808EC0042016F08033E8600013068
:10095000870041016C0881006808EC006A084201C8
:100960006F074101ED006D08FC3E860001308700F5
:100970006C08810000306B02093003196A02031809
:10098000C22CC32CC42C042D42016F094101EC0080
:10099000420170094101ED00EC0A0319ED0A033030
:1009A0006C054201ED00003041016D054201EE0091
:1009B0006D084101EC006C084201EF076D08410130
:1009C000EA0242016E084101EB3BFC30EA05FF30D0
:1009D000EB05FD2C6808EC0042016F088600013031
:1009E000870041016C0881000130EA020030EB3BD6
:1009F0000130EC006C084201EF0741016A086B040A
:100A0000031D032D042DEA2C08004401E500E0013C
:100A1000E00A1030E3002730E400142D01304101DA
:100A2000EF006F084401E507650886000130870084
:100A30000108031D1C2D1D2D0E2D4301ED1F212D21
:100A4000222DA02DEC09ED09EC0A0319ED0A2D3039
:100A50004101EF0044016508860001308700410133
:100A60006F0881000130EF006F084401E507A02DF9
:100A7000440164084201ED00440163084201EC00B6
:100A800043016D084201EF0043016C084201EE0092
:100A900089317321853142016D084401E200420130
:100AA0006C084401E10062084101E9004401610869
:100AB0004101E800440164084101EB00440163087E
:100AC0004101EA009E3189268531410168084301D0
:100AD0006C02EC004101690843016D3BED000A30F6
:100AE0004201EC000030ED00440164084201EF00D7
:100AF000440163084201EE008931732185314201CE
:100B00006D084401E40042016C084401E3006108FF
:100B10006204031D8C2D8D2D922D6008031D912DD7
:100B2000922DA02DE0016108303E4101EF0044010B
:100B3000650886000130870041016F088100322D71
:100B400044016408803A4101EF0080306F02031DC8
:100B5000AC2D0130440163020318AF2DB02D382DA8
:100B6000440160080319B52DB62DC62D3030410162
:100B7000EF004401650886000130870041016F08DD
:100B800081000130EF006F084401E5076508860029
:100B900001308700810101304101EF006F084401FD
:100BA000E507080000304101C0000830C1000030F6
:100BB000BE000830BF0002309C310A248531710824
:100BC0004001A7007008A600410167084001A90084
:100BD000410166084001A8008A31E42285314001C4
:100BE0002609B0002709B100B00A0319B10A30087C
:100BF000B5003108B60001309C310A2485317108F6
:100C00004001A7007008A600410165084001A90045
:100C1000410164084001A8008A31E4228531400185
:100C20002609B0002709B100B00A0319B10A30083B
:100C3000B7003108B80041013C08F0003D08F10060
:100C4000890D893B8909F200F30040013508F40061
:100C50003608F500890D893B8909F600F7009231C5
:100C60006822853170084001B0007108B100720837
:100C7000B2007308B3000B30B400B337B20CB10C40
:100C8000B00CB40B3D2E3108C2003008C100410148
:100C90003A08F0003B08F100890D893B8909F20010
:100CA000F30040013708F4003808F500890D893B4E
:100CB0008909F600F70092316822853170084001F9
:100CC000B0007108B1007208B2007308B3000B30B5
:100CD000B400B337B20CB10CB00CB40B692E3108B0
:100CE0004101C500400130084101C40090316A2033
:100CF000853140014008B1003F08B000310DB10C12
:100D0000B00C310DB10CB00C3008A6003108A700B2
:100D1000410143084001B300410142084001B200D3
:100D2000330DB30CB20C330DB30CB20C3208A80067
:100D30003308A900AA018B31F92385310800440149
:100D4000EC0043016F080319A62EA72EAB2E9C3191
:100D50006A248631AE2E9A318722863100304201D4
:100D6000EF000030EE000330ED00E830EC0093318E
:100D7000BB2386315E304301EC00A030ED009F3193
:100D80009127863109304401E60066084201EC00F3
:100D90006430ED000030EE00C0308931E72186314B
:100DA0004401E70067084101C7005B30ED00A03057
:100DB000EE00C03096311C268631003A031DE12E2C
:100DC000E22EE82E30304401E8000330E900ED2E39
:100DD00030304401E8000030E9006908E1006808AB
:100DE000E0006430E2000030E300C830E40000308E
:100DF000E5009031EE20863100304201EF000030F6
:100E0000EE000030ED000A30EC009331BB23863158
:100E100044016C0886000130870001080319112F76
:100E2000122F652F48304301EC00A030ED009F31B8
:100E30009127863144016C084201EC000130ED003D
:100E40000C304401E60066084201EE00EF01EF0AB3
:100E50009131D72186311C304401E60066084201F9
:100E6000EC00E830ED000330EE00C0308931E721BE
:100E700086314401E70067084101C7005B30ED009F
:100E8000A030EE00C03096311C268631003A031D9A
:100E90004A2F4B2F512F00304401EA000330EB0062
:100EA000562F30304401EA000030EB006B08E100BF
:100EB0006A08E0006430E2000030E300C830E4007B
:100EC0000030E5009031EE208631080041014908EC
:100ED00003196B2F6C2FF72F40010E19702F712FF4
:100EE000A92F4D080319752F762F962F410137082A
:100EF000F3003608F2003508F1003408F0009031B4
:100F000000208731F31B912F7308031D922F720865
:100F1000031D922FE93070020330713B031C912FA7
:100F2000922FAB2F4001CC01CC0AAB2F9A31B422C7
:100F3000873173084101B7007208B6007108B50027
:100F40007008B4004001CD01CD0A9D317A2587316A
:100F5000AB2FCD01CC0140014C080319B02FB12FAC
:100F6000C92F9C311C2487314001C101C2014101BC
:100F7000C401C5014001BF01C0014101C201C3015B
:100F8000EF2F8D31DA258731EF2F8531D22587314B
:100F9000EF2F4E08B900BA013A08003A0319D12FD1
:100FA000C12F3908003A0319C12F013A0319C52F7F
:100FB000C12F9031C22087312F3A031DE02FE12F3E
:100FC000EF2F9B31B52387310030F3000030F20062
:100FD0007530F1003030F0009A31BE2287319A31FD
:100FE00051228731003A031DF62FF72FD92F080021
:100FF0002F3400340034FF340034003400340A3419
:101000004001500803190528062800285108A03E71
:1010100086000130870001084101E80068084001AE
:10102000CF005108203E86000230870001084101B0
:10103000E8006808E9000130E80068084001D107CD
:1010400020305102031C252826282728D1014E01D3
:10105000991201304001D0024E01991641016908F0
:1010600008009C314024883180304301EC00253059
:10107000ED009D31EF2588315E304301EC00A0305A
:10108000ED009F319127883100304201EF000030A0
:10109000EE000030ED006430EC009331BB2388316A
:1010A0001B304301EC00A030ED009F3191278831C7
:1010B00000304201EF000030EE000030ED00FA3069
:1010C000EC009331BB2388315E304301EC00A0304B
:1010D000ED009F319127883100304201EF00003050
:1010E000EE000130ED00F430EC009331BB23883189
:1010F00036304301EC00A030ED009F31912788315C
:1011000000304201EF000030EE000130ED00F4301D
:10111000EC009331BB23883100304301EC00963062
:10112000ED009D31EF25883108004201EC006C088C
:101130004101EC006C084201EF00410169084201E5
:10114000EE00410168084201ED0001304101EA0270
:101150000030EB3B6A0A031DB1286B0A031DB1285E
:10116000B228C328E801E90101290130EC006C082C
:101170004201EF070130ED070030EE3D0130410143
:10118000EA020030EB3B42016F0886000130870025
:1011900001080319CC28CD28F1286D0884006E08B9
:1011A000850012000319D528D628F12841016A08C4
:1011B0006B040319DC28DD28F12842016D08840046
:1011C0006E08850000084101EC0042016F088600AE
:1011D00001308700010841016C060319F028F1284D
:1011E000B52842016F088600013087006D08840031
:1011F0006E088500000801024101E800E901031CB6
:10120000E90308004301ED01ED016D08EC006C08F5
:101210004001C70000304201EF000030EE00003016
:10122000ED002830EC009331BB23893101304301BC
:10123000EC006C08ED076D08803A793E031C21290B
:10124000222905294001C7014301ED016D08EC0089
:101250006C084001C60000304201EF000030EE0093
:101260000030ED002830EC009331BB238931013090
:101270004301EC006C08ED076D08803A793E031CD1
:101280004229432926294001C6014301ED016D0889
:10129000EC006C084001C50000304201EF00003056
:1012A000EE000030ED002830EC009331BB23893193
:1012B00001304301EC006C08ED076D08803A793E7F
:1012C000031C6329642947294001C50100304101FD
:1012D000EB000030EA002730E9001030E8009A31D6
:1012E000DC22893108004301E9014201ED1F79291F
:1012F0007A298229EC09ED09EC0A0319ED0A430168
:10130000E901E90A4201EF1F862987299229EE099E
:10131000EF09EE0A0319EF0A01304101EE006E08F1
:101320004301E9064301EA01EB0142016C086D0447
:1013300003199B299C29D4294301E801E80AAB2918
:101340000130EC35ED0D890BA12901304101EE0092
:101350006E084301E8074201ED1FAF29B029A0291B
:1013600001304301EA35EB0D890BB22942016D08CA
:101370006F02031DBD296C086E02031CC029C12920
:10138000C7296C08EE026D08EF3B43016A14013077
:101390004201ED36EC0C890BC92901304301E8020A
:1013A000031DD329D429B029430169080319D92978
:1013B000DA29DF29EA09EB09EA0A0319EB0A6B08C3
:1013C0004201ED0043016A084201EC0008004401BB
:1013D000E5009B31E823893141016B084401E300BA
:1013E00041016A084401E200410169084401E10049
:1013F000410168084401E000E4011E2A9A31A2225A
:101400008931003A0319052A062A1E2A883100204C
:1014100089314301E80044016508860001308700F6
:101420004301680881000130E80068084401E507CD
:1014300001304301E80068084401E40742016C08F8
:10144000440164020318252A262A602A6308410100
:10145000EB00440162084101EA00440161084101D6
:10146000E900440160084101E8009D31D12589313E
:1014700042016D084301E80042016E084301E900A2
:10148000EA01EB016B08803AEC0041016B08803AFD
:1014900043016C02031D5C2A41016A0843016A0290
:1014A000031D5C2A4101690843016902031D5C2A8E
:1014B000410168084301680203185F2A602AFE2977
:1014C0004401640808004101EF0003304201EC00D0
:1014D0000030ED00033041016F07E800E901031817
:1014E000E90AEF1F742AE903B0304101EA00043031
:1014F000EB009E3189268A31410169084201EF00E3
:10150000410168084201EE00893173218A314201AC
:101510006D084101BD0042016C084101BC0003306F
:101520004201EC000030ED00033041016F07E8009C
:10153000E9010318E90AEF1F9E2AE9037830410107
:10154000EA000030EB009E3189268A3141016908AA
:101550004201EF00410168084201EE008931732128
:101560008A3142016D084101BB0042016C08410112
:10157000BA0003304201EC000030ED0003304101BD
:101580006F07E800E9010318E90AEF1FC82AE90319
:101590003C304101EA000030EB009E3189268A315F
:1015A000410169084201EF00410168084201EE0073
:1015B000893173218A3142016D084101B90042012C
:1015C0006C084101B800080040012808A60229085B
:1015D000A73B2708803AAA0082302A02031DF22A7C
:1015E00001302602031CF52AF62A262B0030F300D0
:1015F0000030F2000630F1000030F0004001260813
:10160000003EAA00FE30273DAB002A08AC002B08A4
:10161000AD000030AD1BFF30AE00AF000B30AC357D
:10162000AD0DAE0DAF0D890B0F2B2F08F7002E0857
:10163000F6002D08F5002C08F4008B3169238A315F
:1016400071084001A7007008A600682B4001270818
:10165000803AAA007E302A02031D302B0030260279
:101660000318332B342B642B0030F3000030F200CE
:101670000630F1000030F00040012608003EAA00CC
:101680000230273DAB002A08AC002B08AD0000302B
:10169000AD1BFF30AE00AF000B30AC35AD0DAE0D65
:1016A000AF0D890B4D2B2F08F7002E08F6002D08E3
:1016B000F5002C08F4008B3169238A317108400150
:1016C000A7007008A600682B4001A601A701682B9F
:1016D00008004001A101F31F6E2B6F2B7C2BF0093A
:1016E000F109F209F309F00A0319F10A0319F20AE0
:1016F0000319F30AA101A10AF71F7F2B802B8F2B5F
:10170000F409F509F609F709F40A0319F50A0319AA
:10171000F60A0319F70A0130F8007808A10600302C
:10172000A5000030A4000030A3000030A200730820
:1017300072047104700403199E2B9F2BE02BA001EF
:10174000A00AAD2B0130F035F10DF20DF30D890B30
:10175000A32B0130F8007808A007F31FB02BB12BA2
:10176000A22B0130A235A30DA40DA50D890BB22B20
:1017700073087702031DC62B72087602031DC62B61
:1017800071087502031DC62B70087402031CC92B57
:10179000CA2BD32B7008F4027108F53B7208F63B94
:1017A0007308F73B22140130F336F20CF10CF00C05
:1017B000890BD42B0130A002031DDF2BE02BB12BB2
:1017C00021080319E42BE52BF02BA209A309A40996
:1017D000A509A20A0319A30A0319A40A0319A50A51
:1017E0002508F3002408F2002308F1002208F00085
:1017F000080040012708F1002608F0008830F200B8
:101800001330F30092319B228B3171084001A70005
:101810007008A6002908F1002808F0008830F200BE
:101820001330F30092319B228B3171084001A900E3
:101830007008A8004101480803191F2C202C672CB0
:101840004201A80161304001A000A030A100283071
:101850009C31AB248B3140012708FA002608F9009F
:1018600028308C3194248B3164304001A000A030AA
:10187000A10028309C31AB248B3140012908FA00AB
:101880002808F90028308C3194248B3153304001E2
:10189000A000A030A10028309C31AB248B3128302F
:1018A000F5000130F6002830F0000130F1009C31E5
:1018B000C3248B3170084001AB002B08F7002A08C5
:1018C000AC002C08F800903196208B31932C40010D
:1018D0002708F1002608F0005530AB002B08F20075
:1018E000913149218B3140012908F1002808F0008D
:1018F0005730AB002B08F200913149218B31503029
:101900009631D9268B315030F5000130F6000C307D
:101910004001AB002B08F7002A08AC002C08F800A7
:10192000903196208B3108004001A500A001A00A4B
:101930001030A3002730A400A12C0130FB007B084D
:10194000A50725088600013087000108031DA92C82
:10195000AA2C9D2CFA1FAD2CAE2C092DF909FA09E1
:10196000F90A0319FA0A2D30FB0025088600013018
:1019700087007B0881000130FB007B08A507092D4B
:1019800040012408F1002308F0007A08F3007908E8
:10199000F20096317A268C3171084001A20070085D
:1019A000A1002208F1002108F0002408F300230818
:1019B000F2009E312B268C3170087902F9007108F3
:1019C0007A3BFA000A30F0000030F10040012408B0
:1019D000F3002308F20096317A268C317108400119
:1019E000A4007008A30021082204031DF82CF92C80
:1019F000FE2C2008031DFD2CFE2C092DA001210822
:101A0000303EFB0025088600013087007B088100FE
:101A1000BB2C2408803AFB0080307B02031D122D72
:101A2000013023020318152D162DC02C400120086B
:101A300003191B2D1C2D282D3030FB002508860096
:101A4000013087007B0881000130FB007B08A5077F
:101A5000250886000130870081010130FB007B08EA
:101A6000A5070800883131208D314301EF01443052
:101A700082317D228D314301EF01EF0A383082310E
:101A80007D228D314301EF01EF0A443086319F26DC
:101A90008D314301EF01383086319F268D319C31E5
:101AA00055248D31BA2D4F304301EC00A030ED00AC
:101AB0009F3191278D3105304401ED006D084201C1
:101AC000EC00E830ED000330EE00C0308931E72152
:101AD0008D31053A031D6D2D6E2D9E2D4F30410128
:101AE000ED00A030EE00C03096311C268D31003A5A
:101AF00003197B2D7C2D8D2D33304401E000003007
:101B0000E1000430E2000030E3000130E400003086
:101B1000E5009031EE208D31AE2D00304401E00023
:101B20000330E1000430E2000030E3000130E40063
:101B30000030E5009031EE208D31AE2D3030440183
:101B4000E0000330E1000430E2000030E300013047
:101B5000E4000030E5009031EE208D31003042018C
:101B6000EF000030EE000030ED003230EC00933139
:101B7000BB238D319A3131228D31003A031DC12DA5
:101B8000C22DCA2D9A3138228D31003A0319C92D40
:101B9000CA2D532D9A3187228D3100304201EF003A
:101BA0000030EE000330ED00E830EC009331BB2351
:101BB0008D31080041016308C1006208C0005F0860
:101BC000BF005E08BE0040010E18E72DE82DF12D84
:101BD00041013D084001C20041013C084001C100F3
:101BE0000D2E0C19F42DF52D052E41013C09400157
:101BF000AD0041013D094001AE00AD0A0319AE0A36
:101C00002D08C1002E08C2000D2E41016108C1003F
:101C10006008C0004001C101C2018E18102E112EB3
:101C2000272E41084204031D162E172E1D2E41019A
:101C30003B08C5003A08C400622E41013908C500BE
:101C40003808C4005B08BF005A08BE00622E8C181A
:101C50002A2E2B2E5B2E41084204031D302E312EDE
:101C6000442E41013A094001AD0041013B094001C8
:101C7000AE00AD0A0319AE0A2D084101C4004001AF
:101C80002E084101C500622E410138094001AD0016
:101C9000410139094001AE00AD0A0319AE0A2D0811
:101CA0004101C40040012E084101C5005B08BF008E
:101CB0005A08BE00622E4101C401C5015D08BF0083
:101CC0005C08BE0090316A208D3140014008AE00B2
:101CD0003F08AD002E0DAE0CAD0C2E0DAE0CAD0CB4
:101CE0002D08A6002E08A700410143084001B000BE
:101CF000410142084001AF00300DB00CAF0C300D77
:101D0000B00CAF0C2F08A8003008A900AA018B3135
:101D1000F9238D3108004301EC006C084401E00018
:101D200060084001CE002C2F4201911301307E014A
:101D3000B8001630B9003D2F07307E01B8001030D2
:101D4000B900420191170030EF000030EE00003082
:101D5000ED001430EC009331BB238E310030410193
:101D6000B3000030B2000030B1000030B0000030ED
:101D7000AF000030AE000030AD000030AC004301D9
:101D8000ED01EE0102309C312E248E3141016808B4
:101D9000B0076908B13D0030B23DB33D01309C3120
:101DA0002E248E3141016808AC076908AD3D003032
:101DB000AE3DAF3D01304301ED070030EE3D6E0812
:101DC000803A4401E00080306002031DEA2E80303A
:101DD00043016D02031CED2EEE2EC22E4101300890
:101DE0004401E000410131084401E10041013208B1
:101DF0004401E200410133084401E3000730E400FC
:101E0000E337E20CE10CE00CE40B002F6108410128
:101E1000E700440160084101E6002C084401E000AD
:101E200041012D084401E10041012E084401E20076
:101E300041012F084401E3000730E400E337E20CDE
:101E4000E10CE00CE40B1E2F61084101E5004401A8
:101E500060084101E4003D2F4E084401E000E1012B
:101E60006108003A0319352F3D2F6008003A031925
:101E7000942E013A03199C2E3D2F08004401670857
:101E80004101E900440166084101E8008830EA00A8
:101E90001330EB009231CF228F31410169084401A8
:101EA000E700410168084401E60069084101E900D2
:101EB000440168084101E8008830EA001330EB0073
:101EC0009231CF228F31410169084401E90041017B
:101ED00068084401E800410148080319702F712F78
:101EE000C42F4201A8016130EE00A030EF0028307D
:101EF0009F312C278F31440167084301ED004401D5
:101F000066084301EC002830853105258F316430A7
:101F10004201EE00A030EF0028309F312C278F3196
:101F2000440169084301ED00440168084301EC00E5
:101F30002830853105258F3153304201EE00A03025
:101F4000EF0028309F312C278F3128304201EC00E0
:101F50000130ED0028304101E8000130E9009C31FA
:101F6000F5248F31410168084301EE006E084201FB
:101F7000EE0044016A084301EF006F084201EF00E0
:101F80009131D7218F31FF2F440167084101E900CA
:101F9000440166084101E80055304301EE006E0837
:101FA0004101EA00923137228F3144016908410131
:101FB000E900440168084101E80057304301EE00A0
:101FC0006E084101EA00923137228F31503097314B
:101FD0003A278F3150304201EC000130ED000C30D7
:101FE0004301EE006E084201EE0044016A0843011D
:101FF000EF006F084201EF009131D7218F310800C7
:10200000700840013B02F40071083C3BF500720887
:102010003D3BF60073083E3BF7007708F300760877
:10202000F2007508F1007408F0000800400148084B
:10203000013E01394401E70067084001C800480833
:102040004401E70067084101ED0000309B31302377
:10205000903133304301EC000030ED00400148087E
:10206000013E4401E70067084301EE009F31B427B9
:102070009031400148088E318B2690310800F100E4
:102080004001550803194528462840284E01191AD1
:102090004A284B284F28710842019A0067281912D4
:1020A0007108F00040015408403E8600023087006D
:1020B000700881000130F0007008D407203054020D
:1020C000031C632864286528D4010130D5024E0121
:1020D0001916080040014208F1004108F0004008CC
:1020E000F3003F08F20041014108F5004008F40008
:1020F00095311725903171084001C0007008BF006C
:1021000041014508F1004408F0004308F30042088B
:10211000F2003F08F5003E08F40095311725903194
:1021200071084101C3007008C20008007808031D4F
:102130009A289B28B9284001550877020318A1283E
:10214000A228C028B9289A3148229031003A0319B0
:10215000AA28AB28A3287508840076088500000803
:1021600090313F2090310130F5070030F63D0130CD
:10217000F7027708031DBD28BE28A3280130C12817
:1021800000300800400150080319C728C828C22899
:102190005108A03E8600013087000108F000700859
:1021A000CF005108203E8600023087000108F00071
:1021B0007008F1000130F0007008D10720305102A2
:1021C000031CE328E428E528D1014E0199120130CF
:1021D0004001D0024E0199167108080044016108BF
:1021E0004101E900440160084101E8009E314A26AE
:1021F0009031440162084201EC004401630842014D
:10220000ED00EE01EF019331BB239031003041012D
:10221000E800E9009E314A269031440164084201F9
:10222000EC00440165084201ED00EE01EF0193313D
:10223000BB23903108004301EB0041016E084301CC
:10224000E90041016D084301E8006B084201EC0020
:102250006C084301EA0043016A08860001308700E8
:10226000EA0A69084201ED00430168084201EC00F6
:102270004301E80A0319E90A42016C0884006D0869
:1022800085000008C03F8908031D472948292B29DC
:102290000800F601F7017008F300720886000130AB
:1022A0008700730881000130F3007308F20771089A
:1022B000F4007008F3000830F500740DF40CF30C12
:1022C000F50B5D297308F0007408F1000130F60782
:1022D0000030F73D7708803AF30080307302031D29
:1022E000732902307602031C762977294B290800CE
:1022F0004101EC006C08EA006A08EB0050019E18EE
:10230000822983297E291E174101680850019A00FD
:1023100070309B009E2950011E141C084101EA00E8
:102320006B08860087016A0881000130EA006A08AC
:10233000EB070130EA006A0850019A0701304101B9
:10234000E902690A031DA529A6298B290800410174
:10235000E900400155080319AE29AF29A9294E010A
:10236000191AB329B429B9294101690842019A000F
:10237000D429191241016908E80040015408403E7F
:102380008600023087004101680881000130E800C2
:1023900068084001D40720305402031CD029D129F9
:1023A000D229D4010130D5024E011916080042018C
:1023B0006F08031DDC29DD29FE2940015508420173
:1023C0006E020318E429E529052AFE299A31902294
:1023D0009131003A0319ED29EE29E62942016C08F2
:1023E00084006D08850000089131A72191310130EA
:1023F0004201EC070030ED3D0130EE026E08031D96
:10240000022A032AE6290130062A00300800410189
:10241000ED006808EB006B08EF006D08EB006B083F
:10242000EE002A2A6F088600013087000108EB00C1
:102430006B08EC000130EB006B08EF076C08EB0059
:102440006E088600013087006B0881000130EB00C8
:102450006B08EE070130E9020030EA3B690A031D10
:10246000352A6A0A031D352A362A122A0800410134
:10247000EE01EF0141016808EB006A0886000130B7
:1024800087006B0881000130EB006B08EA076908E0
:10249000EC006808EB000830ED006C0DEC0CEB0C68
:1024A000ED0B4D2A6B08E8006C08E9000130EE07DF
:1024B0000030EF3D6F08803AEB0080306B02031D67
:1024C000632A02306E02031C662A672A3A2A080031
:1024D0000030FB000030FA000030F9000030F80056
:1024E000701C732A742A7C2A7408F8077508F93D51
:1024F0007608FA3D7708FB3D0130F435F50DF60D11
:10250000F70D890B7D2A0130F336F20CF10CF00C3B
:10251000890B842A7308720471047004031D912AC4
:10252000922A702A7B08F3007A08F2007908F100F9
:102530007808F00008007308803AF4007108803AC7
:102540007402031DA52A700872020318A82AA92A7A
:10255000AE2A7308F1007208F000CE2A7209F40066
:102560007309F500F40A0319F50A7108803AF600B8
:102570007508803A7602031DBF2A7408700203189A
:10258000C22AC32ACE2A7209F4007309F500F40A9C
:102590000319F50A7408F0007508F10008004101FC
:1025A0006B08803AEC006908803A6C02031DDA2A55
:1025B00068086A020318DD2ADE2AE42A41016B0852
:1025C000E9006A08E800062B41016A09EC006B0982
:1025D000ED00EC0A0319ED0A6908803AEE006D0877
:1025E000803A6E02031DF62A6C0868020318F92A65
:1025F000FA2A062B41016A09EC006B09ED00EC0A8E
:102600000319ED0A6C08E8006D08E90008000A30BB
:102610004101E8000030E90040014908013E410164
:10262000EA00003003180130EB0095316B2593313F
:10263000410168084401E70067084001C9004908F2
:102640004401E70067084101ED0001309B31302370
:10265000933130304301EC000330ED004001490874
:10266000013E4401E70067084301EE009F31B427B3
:102670009331400149088A316322933108004001B7
:102680004408013E0F39F0007008C4004408031DDF
:102690004A2B4B2B642B470803194F2B502B522BE3
:1026A0001913532B191746080319572B582B5A2B5C
:1026B00099125B2B9916450803195F2B602B622B2F
:1026C0001912792B1916792B47084402031C692B20
:1026D0006A2B6B2B191746084402031C702B712BB5
:1026E000722B991645084402031C772B782B792B03
:1026F0001916080040015208A03E860001308700EC
:10270000810142011D1D852B862B932B4001520810
:10271000A03E8600013087008114420161088A00D2
:1027200060080A00933142019D1C972B982BA52B22
:1027300040015208A03E8600013087000115420189
:102740005F088A005E080A00933140015208A03EEB
:1027500086000130870001080319AF2BB02BB72B7F
:1027600042015D088A005C080A009331BA2B9D3152
:102770004325933108009B31E823933141016B08D5
:102780004301EB0041016A084301EA004101690885
:102790004301E900410168084301E80043016B0877
:1027A0004101EB0043016A084101EA004301690865
:1027B0004101E900430168084101E8009D31D1254C
:1027C000933142016F0841016B02031DF72B420157
:1027D0006E0841016A02031DF72B42016D08410199
:1027E0006902031DF72B42016C0841016802031CBA
:1027F000FA2BFB2BCE2B08004001C701C601C501F7
:10280000C401C3019B31E823933141016B08A3004C
:102810006A08A2006908A1006808A000C60140017A
:1028200019179916191601309B31852393314201EE
:10283000EC006C084001C90000309B3185239331C6
:102840004201EC006C084001C8003F304101E80043
:102850001330E9009A311F22933194304101E8008E
:102860001B30E9009A310722933194304101E8008E
:102870001B30E9009A310D22933108004E01991264
:102880007A304101E8001330E9009A317522943121
:102890004E0119126E304101E8001F30E9009A31F3
:1028A00001229431083042019F0090309D00243075
:1028B0009E0067309B009C01E0304101E800193028
:1028C000E9009A3163229431F7304101E800193070
:1028D000E9009A316C229431F3304101E80019305B
:1028E000E9009A315A2294314001CF01D401D30139
:1028F00020304101EA006A084001D500D201D1012F
:10290000D0014E0199160800203040019800703027
:10291000990040309A001F309200803093002F3091
:1029200094007E01CE01C3010730B800F030C4002E
:102930001630B9004730CF00BA01C501D001373099
:10294000BB00F030C600FF30D1003F30BC00F0309B
:10295000C700FF30D20055105511541454155310B0
:102960005311E2304101E8001930E9009A310722A1
:102970009431E1304101E8001930E9009A310D222B
:1029800094314E0116160F307E01A40015307D01E2
:10299000CB0008004101EC006808EA006A08EB007F
:1029A00050019E18D42CD52CD02C1E1741016C0838
:1029B000FF3E50019A0070309B009D010E2D50018A
:1029C0009E18E32CE42CDF2C41016B088600870164
:1029D000010850019C0001304101EA006A08EB0740
:1029E0000130EA006A0850019A07400103108B1F6A
:1029F000FA2CFB2CFC2C031450011E1555309F00A3
:102A0000AA309F009E149E18062D072D032D1E111F
:102A10004001031C0C2D0D2D0E2D8B170130410193
:102A2000E902690A031D152D162DDF2C0800720816
:102A30007002FB007308713BFC007108FA0070081B
:102A4000F90070087104031D262D272D2C2D01304F
:102A5000F435F50D890B282D74087504031D312DEF
:102A6000322D362D0130F4000030F5007508803A23
:102A7000F6007C08803A7602031D402D7B08740224
:102A80000318432D442D4B2D74087207F900750867
:102A9000733DFA00662D7409F6007509F700F60A11
:102AA0000319F70A7C08803AF8007708803A780220
:102AB000031D5C2D76087B0203185F2D602D662DAB
:102AC00074087202F9007508733BFA007A08F10085
:102AD0007908F00008004101EE01EB1F702D712D07
:102AE000782DEA09EB09EA0A0319EB0AEE01EE0A6E
:102AF000E91F7B2D7C2D812DE809E909E80A0319DE
:102B0000E90A680869040319862D872DB02DED01A7
:102B1000ED0A932D0130E835E90D890B8B2D01303D
:102B2000EC006C08ED07E91F962D972D8A2D69089A
:102B30006B02031D9D2D68086A02031CA02DA12DA8
:102B4000A52D6808EA026908EB3B0130E936E80C7C
:102B5000890BA62D0130ED02031DAF2DB02D972D51
:102B60006E080319B42DB52DBA2DEA09EB09EA0A4E
:102B70000319EB0A6B08E9006A08E80008009C31B9
:102B8000DC2495319D31B42595319F31D92795317C
:102B90009331FC2395319D310F2595318B170B1700
:102BA0009A31FD2295319B3194239531893102214F
:102BB000953100304201EF000030EE000330ED00AF
:102BC000E830EC009331BB2395319A31D222953114
:102BD0008031A120953197319C27953141016B08B7
:102BE0006A0469046804031DF62DF72D0D2E9A3131
:102BF000AB2295319E31A9269531630000009931B1
:102C0000EA219531003A0319062E072EFF2D89314E
:102C1000022195319B31F923953100304201EF00BB
:102C20000030EE000030ED003230EC009331BB2379
:102C30009531E82D80315B284301ED0041016D089D
:102C40006E040319242E252E782E6E08E9006D08D7
:102C5000E8009C31F5249631410169084301EC00FC
:102C6000410168084301EB006A2E41016E08E9004A
:102C70006D08E80043016C084101EB0043016B085B
:102C80004101EA0043016D088831952096314101E8
:102C900068086904031D4D2E4E2E512E43016D0808
:102CA000792E6D0884006E08850000084301E80055
:102CB000E90168084101E800430169084101E900B0
:102CC00043016D08013E9D31292596314301EA00FB
:102CD0006A08ED006D0803196E2E6F2E782E6D08B0
:102CE0008600013087000108031D772E782E352ECF
:102CF00000300800F601F11F7E2E7F2E862EF0098F
:102D0000F109F00A0319F10AF601F60AF31F892EF8
:102D10008A2E932EF209F309F20A0319F30A0130FD
:102D2000F4007408F606F701F8017008710403193D
:102D30009A2E9B2ECA2EF501F50AA72E0130F035EA
:102D4000F10D890B9F2E0130F4007408F507F11F77
:102D5000AA2EAB2E9E2E0130F735F80D890BAC2E26
:102D600071087302031DB62E70087202031CB92E7F
:102D7000BA2EBF2E7008F2027108F33B77140130AF
:102D8000F136F00C890BC02E0130F502031DC92E5F
:102D9000CA2EAB2E76080319CE2ECF2ED42EF709CD
:102DA000F809F70A0319F80A7808F1007708F00023
:102DB0000800F500750A8600013087000108053E0D
:102DC000F0007008F400F601F701192F750886006D
:102DD000013087000108F000F1017008F100F001F6
:102DE00076087006F60077087106F7000130F000EB
:102DF0007008F5070830F0007008F300F71F012F86
:102E0000022F0F2F7708F1007608F000F035F10D52
:102E100021307006F60010307106F700132F76355A
:102E2000F600770DF7000130F302031D182F192F5C
:102E3000FE2EFF30F0007008F407F41F202F212F22
:102E4000E62E7608F00075088600013087007008CD
:102E500081000130F0007008F5077708F000750870
:102E6000860001308700700881000130F000700892
:102E7000F50708004101ED006D0A8600013087006A
:102E80000108053EE8006808EC00EE01EF017B2F29
:102E90006D088600013087000108E800E901680834
:102EA000E900E8016E086806EE006F086906EF00A9
:102EB0000130E8006808ED070830E8006808EB001A
:102EC000EF1F632F642F712F6F08E9006E08E80071
:102ED000E835E90D21306806EE0010306906EF0094
:102EE000752F6E35EE006F0DEF000130EB02031D04
:102EF0007A2F7B2F602FFF30E8006808EC07EC1F6B
:102F0000822F832F482F6E08E8006D08860001305D
:102F10008700680881000130E8006808ED076F0845
:102F2000E8006D08860001308700680881000130E4
:102F3000E8006808ED0708004101280840013B024D
:102F40004101EC00290840013C3B4101ED002A0809
:102F500040013D3B4101EE002B0840013E3B410159
:102F6000EF006F084201EF0041016E084201EE00E0
:102F700041016D084201ED0041016C084201EC0085
:102F80004101270842016F02031DD62F4101260887
:102F900042016E02031DD62F4101250842016D0238
:102FA000031DD62F4101240842016C02031CD92FB6
:102FB000DA2FE42F00304101EB000030EA0000304E
:102FC000E9000030E800FF2F6C0841012402EC000A
:102FD00042016D084101253BED0042016E084101AF
:102FE000263BEE0042016F084101273BEF006F08CE
:102FF000EB006E08EA006D08E9006C08E8000800C4
:1033C0000800080008000800400149080800400102
:1033D0004808080040014A08080044010E1008008F
:1033E00044010E1408009D31432599310800420123
:1033F0001D121D1608004E0190109B3116239931A5
:10340000080041016908D3006808D20008004101A2
:103410006908D1006808D000080041016908CF00A0
:103420006808CE00080041016908D7006808D60086
:10343000080041016908D5006808D400080041016E
:103440006908CB006808CA000800640080010131E7
:10345000890B262A0034FE0012001E00FE0B2C2AC7
:103460000034031040018D1F03140030093D080093
:10347000031040010C1E03140030093D08001530F4
:103480007D01CB000F307E01A4001630A60008009D
:1034900040015508031D4D2A4F2A0130502A0030A3
:1034A000080040015008031D562A582A0130592AA5
:1034B00000300800410169084201DD00410168084F
:1034C0004201DC000800410169084201E1004101BC
:1034D00068084201E0000800410169084201DF007C
:1034E000410168084201DE0008004101690842010B
:1034F000E300410168084201E20008006030510128
:103500008D008F0191010530930092010800153064
:103510007D01CB000F307E01A4001630A60008000C
:1035200040015508031D952A972A0130982A00303A
:1035300008009931ED219A314101C9019931ED21FC
:103540009A31080040015008031DA72AA92A01301A
:10355000AA2A00300800400198169A139C317F2453
:103560009A314001CA01080040013E08F3003D08BD
:10357000F2003C08F1003B08F0000800730841012C
:10358000A7007208A6007108A5007008A400080032
:103590004F0196019701980199019A019B019C01A5
:1035A0009D0108004101C901C90A9B31F9239A31E3
:1035B0009931F0219A31080041016B08A7006A088F
:1035C000A6006908A5006808A400080040014B088F
:1035D0000319EB2AEC2AEF2ACB010130F02A003044
:1035E000080040019A1798122F3094009A313F2218
:1035F0009A314001CA01CA0A080000304301EC00B8
:103600009630ED009D31EF259A319A3187229A311B
:10361000080041015608570403190F2B102B152BD6
:1036200057088A0056080A009B31080041015408D7
:10363000550403191C2B1D2B222B55088A005408F6
:103640000A009B31080041014A084B040319292B49
:103650002A2B2F2B4B088A004A080A009B310800AE
:103660004101EF00ED30EE006E08E800E901E90AE3
:103670006F089431CA249B3108004E01101041019B
:103680005908F1005808F0009B31C6239B319B314B
:1036900009239B3108004E01101141014D08F10032
:1036A0004C08F0009B31D7239B319B3123239B3166
:1036B00008002834003499340134A0340034CC3468
:1036C00000347834003400340834003408344101C4
:1036D0005008510403196D2B6E2B732B51088A006F
:1036E00050080A009B317E015510080041014E0828
:1036F0004F0403197C2B7D2B822B4F088A004E0828
:103700000A009B317E01551108004101EE006E0850
:10371000ED006D08E800E901E90AEF309131782108
:103720009B3141016F0808007E1C982B9A31F12AC9
:1037300040019A1798122F3094009A3187229B31BA
:103740004001CA01CA0A08007E01551CA82BA92BFA
:10375000AC2B9B3167239B317E01551DB02BB12BC8
:10376000B42B9B3176239B31080040013E08410178
:10377000AB0040013D084101AA0040013C08410165
:10378000A90040013B084101A800080044010E1DAA
:10379000CA2BCB2BD22B0E1071088D0070088C0019
:1037A0000E14D62B71088D0070088C00080044019F
:1037B000141DDB2BDC2BE32B141071089300700815
:1037C00092001414E72B710893007008920008000F
:1037D00040013E084101EB0040013D084101EA0083
:1037E00040013C084101E90040013B084101E8007B
:1037F000080040013E084101AB0040013D08410185
:10380000AA0040013C084101A90040013B084101D8
:10381000A8000800F300730841019F0042019117BE
:10382000111311141118152C162C122C41011E08FD
:10383000F1001D08F000080064309631D9269C3153
:103840006430F5000130F6000830F9007908F7001F
:10385000F801F80A903196209C3108004101EB00F4
:103860006B089F0042019117111311141118392C84
:103870003A2C362C41011E08E9001D08E80008001A
:1038800015307D01CB000F307E01A4000F30A60063
:1038900000304201EF000030EE000030ED00053056
:1038A000EC009331BB239C31080013307D01CB0029
:1038B0000F307E01A4001630A60000304201EF0058
:1038C0000030EE000030ED000530EC009331BB23FA
:1038D0009C31080013307D01CB000F307E01A60023
:1038E0001430A40000304201EF000030EE00003040
:1038F000ED000530EC009331BB239C3108001530FE
:103900007D01CB0014307E01A4001630A6000030EB
:103910004201EF000030EE000030ED000530EC0019
:103920009331BB239C3108000130450190008F0189
:103930009101F9308D008C014E0190109A140230E3
:103940004101E8000030E9009A3119229C31C03071
:1039500045018E000800FD0040012108F600200806
:10396000F5007D08F0000130F1009C31C3249C314A
:1039700070084001A2007108A3007D0822079E3153
:10398000C9269C3108007108F4007008F300CC2CA3
:103990000130F0070030F13D7008840071088500A7
:1039A0001200031DD42CD52CC82C73087002F00013
:1039B0007408713BF10008009A31C8229C3194319F
:1039C00084249C319A317E229C319D315E259C312C
:1039D0009F310B279C319C3194249C319E31EA26E7
:1039E0009C3194313E249C31080041016908EC006F
:1039F0006808EB00FF2C0130E8070030E93D68085B
:103A00008400690885001200031D072D082DFB2C7A
:103A10006B086802E8006C08693BE900080099310E
:103A2000E7219D318E318B269D319931E4219D31E5
:103A30008A3163229D3166304101E8000730E90098
:103A40009A3113229D314101C9019D3197259D3144
:103A500008004101EA006A08860001308700010879
:103A60006806031D342D352D372D6A08422D6A084E
:103A7000860001308700EA0A0108031D402D412D10
:103A80002B2D0030080042011908F00040015208B7
:103A9000203E860002308700700881000130F0006F
:103AA0007008D20720305202031C572D582D592D73
:103AB000D2010130F0007008D007080041018C01EC
:103AC0008D018E018F019201930198019A019F014E
:103AD000103042018C008D018E018F019001920106
:103AE0009301940195019601970107309800843065
:103AF000910008004001C101C2014101C401C5019A
:103B00004001BF01C0014101C201C30149080319BD
:103B10008A2D8B2D962D00304001A600A700003085
:103B2000A800A900AA018B31F9239D3108004001AA
:103B3000C101C2014101C401C5014001BF01C00171
:103B40004101C201C30149080319A72DA82DB32DB6
:103B500000304401E600E7000030E800E900EA0137
:103B60008F313E279D31080000304001BE000030FB
:103B7000BD000030BC000030BB0000304101AB0094
:103B80000030AA000030A9000030A8004001CB019D
:103B900069304101E8001E30E9009A3119229D3157
:103BA00008004101680840013B024101EC0069083E
:103BB00040013C3B4101ED006A0840013D3B4101B1
:103BC000EE006B0840013E3B4101EF006F08EB0047
:103BD0006E08EA006D08E9006C08E80008009630FD
:103BE00043016D066C04031DF62DF72DFC2D673087
:103BF00042019B009C01012EA03042019B0001303C
:103C00009C000030EF000030EE000030ED00C830C6
:103C1000EC009331BB239D3108004101280840018D
:103C20003B024101EC00290840013C3B4101ED0011
:103C30002A0840013D3B4101EE002B0840013E3B7C
:103C40004101EF006F08EB006E08EA006D08E90023
:103C50006C08E8000800F401F501701C302E312ECC
:103C6000352E7208F4077308F53D0130F235F30D77
:103C7000890B362E0130F136F00C890B3B2E700883
:103C80007104031D442E452E2D2E7508F100740875
:103C9000F0000800410168080F39EA006A08400195
:103CA000C50041016908EB006808EA000430EB3602
:103CB000EA0C890B572E6A080F39EC006C0840019A
:103CC000C600410169080F39EA006A084001C700CF
:103CD000080001304001BB070030BC3D0030BD3D55
:103CE0000030BE3DFF303B05F00003303C05F100E5
:103CF00000303D05F20000303E05F3007308720409
:103D000071047004031D852E862E882ECB01CB0AEC
:103D100008004101EC01ED01681C8F2E902E942EBD
:103D20006A08EC076B08ED3D0130EA35EB0D890BB5
:103D3000952E0130E936E80C890B9A2E6808690443
:103D4000031DA32EA42E8C2E6D08E9006C08E8003C
:103D5000080007304301EC006C08ED006D08EC0032
:103D60006C084001C70000304201EF000030EE0057
:103D70000030ED002830EC009331BB239E31FF3042
:103D80004301EC006C08ED07ED1FC72EC82EAE2EC8
:103D90000800FB007608FA007508F9007B08F700B8
:103DA0007708FC007C08860001308700FC0A7A084E
:103DB000F8007908F700F90A0319FA0A770884006D
:103DC000780885000008C03F8908031DE82EE92E09
:103DD000D22E080044018F01900106309100F93085
:103DE0008D00E5308C004E01101044010D0841019A
:103DF000D90044010C084101D8004E011A14E330E7
:103E00004101E8001930E9009A3113229E31013056
:103E100044018E000800440195019601013097008D
:103E2000FF309300063092004E0110114401130838
:103E30004101CD00440112084101CC004E011A1588
:103E400003304101E8000030E9009A311F229F3120
:103E500005304401940008004101EF0042016F0861
:103E60004101EE0042016E084101ED006F08E800DB
:103E70000130E9009C31F5249F314101680843017C
:103E8000EC00410169084301ED0041016F08430165
:103E90006C0791311B219F310800652F883100206C
:103EA0009F319A31A2229F31003A031D582F592F7A
:103EB000652F00304201EF000030EE000030ED00D1
:103EC0000530EC009331BB239F319A31A2229F3100
:103ED000003A031D6C2F6D2F4E2F0800203040013B
:103EE00055020318742F752F8E2F5308403E8600FD
:103EF00002308700010842019A000130F00070088A
:103F00004001D30720305302031C872F882F892FAD
:103F1000D3010130F0007008D507902F4E0119121F
:103F200008009F314D279F3143016D084201ED008C
:103F300043016C084201EC0043016D084101E900B6
:103F400043016C084101E8009C31F5249F31410197
:103F500068084301EE006E084201EE00EF01EF0A2F
:103F60009131D7219F3108004401E601D02F430150
:103F70006D084401E10043016C084401E000643035
:103F8000E2000030E3009030E4000130E5009031C1
:103F9000EE209F3101304301EF006F084401E60736
:103FA00043016E0844016602031CD72FD82FB72F98
:103FB000080000304101E800E9000C30EA00003060
:103FC000EB005030843134249F312F304101EE001A
:103FD0006E084201D00004304101EE006E0842013B
:103FE000D100D20186304101EE006E084201D300BB
:103FF000D4010A304101EE006E084201DB000800E6
:10400000413454342B344234413455344434303404
:104010000034413454342B3452344F344C3445340E
:1040200030340034413454342B3452344F344C3413
:10403000453431340034413454342B344234413427
:104040005534443432340034413454342B34413404
:104050004434443452343F340034413454342B34E7
:1040600043344C34453441345234003441345434B4
:104070002B345234453453344534543400344134B1
:1040800054342B34523445344E3445345734003490
:10409000413454342B3443344F344E340034483498
:1040A0005534473453340A340034413444344434AE
:1040B00052343A3400344F344B34003441345434A5
:0C40C00000343E34203400342C34003432
:020000040001F9
:0A000E00EC3FFF378B07FF3FFF3F79
:04E00000000000001C
:00000001FF
