:020000040000FA
:1000000080315B28080008007E1480314E01161EE6
:100010000A280B2813280C1E0E280F2813289631A7
:100020001C26803159280B1F1628172859281A1DFD
:100030001A281B282328101D1E281F282328953125
:10004000D125803159289A1C262827282F28901C32
:100050002A282B282F2894319124803159281A1CC2
:10006000322833283B28101C362837283B28953166
:10007000C32580315928991E3E283F284A288F1EC3
:10008000422843284A28410151088A0050080A00A2
:1000900080315928191E4D284E2859280F1E5128E5
:1000A00052285928410153088A0052080A00803119
:1000B00059287E10090080315D28A33084009430D7
:1000C00085006230860000308700063094319D2420
:1000D00080310C30840096308500DA3086000030A4
:1000E0008700103094319D248031FD01453084001B
:1000F000003085001D30943197248031A030840079
:1001000000308500223094319724803120308400E3
:10011000013085004030943197248031A030840034
:10012000013085004830943197248031203084009C
:100130000230850020309431972480317E104001B8
:100140008F31A32F152A9431A9248031003A031945
:10015000AA28AB28C42895316E2580314001290892
:100160004101A300400128084101A20040012708E5
:100170004101A100400126084101A0000230EA002F
:100180006A084001CF00362A9431B0248031003A09
:100190000319CB28CC28362A95316E2580314001B1
:1001A00029084101A300400128084101A2004001A3
:1001B00027084101A100400126084101A0000430A8
:1001C000EA006A084001CF00362A9431A924803120
:1001D000003A0319EC28ED282429410123084001A5
:1001E000A900410122084001A80041012108400165
:1001F000A700410120084001A60097311727803150
:100200004001A91B11292908031D12292808031DD3
:1002100012292708031D1229C9302602031C11299F
:100220001229362ACF01CF0A0030B6000330B700BA
:100230003230B8000030B9006430BA000030BB0082
:10024000893115218031362A4001CF01362A943177
:10025000B0248031003A03192E292F292429410185
:1002600023084001A900410122084001A8004101E2
:1002700021084001A700410120084001A600973154
:10028000172780314001A91B53292908031D542930
:100290002808031D54292708031D5429C9302602A4
:1002A000031C53295429362A03304101EA006A0805
:1002B0004001CF003030B6000030B7003230B80017
:1002C0000030B9006430BA000030BB00893115211C
:1002D0008031362A9431A9248031003A031D7129D6
:1002E000722977298931602180314001CF01943111
:1002F000B0248031003A03197E297F29362A033041
:100300004001B6000030B7003230B8000030B9000C
:100310006430BA000030BB008931152180310530CE
:100320004101EA006A084001CF00362A9431B02426
:100330008031003A031D9D299E29A3299731E32787
:1003400080314001CF019431A9248031003A031952
:10035000AA29AB29362A7F2923084001A900410197
:1003600022084001A800410121084001A7004101E5
:1003700020084001A6009731172780314001A91BB2
:10038000CE292908031DCF292808031DCF29A13014
:1003900026020F30273B031CCE29CF29E429333016
:1003A000B6000330B7003230B8000030B900643016
:1003B000BA000030BB00893115218031063041017F
:1003C000EA006A084001CF009431A9248031003A44
:1003D000031DEB29EC29362A9431B0248031003AF0
:1003E000031DF329F429362A94318C248031863177
:1003F0000D26803195313E25803124299431A92460
:100400008031003A031D052A062A362A9431B02489
:100410008031003A031D0D2A0E2A362A94318C248D
:100420008031843190248031FA2940014F08410104
:10043000EA00EB016B08003A03191F2A362A6A0802
:10044000003A0319A328013A03196A29033A031948
:10045000E528013A03199629073A03192729013A91
:100460000319AC29033A0319FE29362A9531782558
:100470008031003A03193D2A3E2AA32A8E313226C2
:100480008031400129084101EF0040012808410165
:10049000EE00400127084101ED004001260841011E
:1004A000EC00EF1B612A6F08031D602A6E08031D14
:1004B000602A88306C0213306D3B0318602A612A71
:1004C000722A00304001B6000130B7000230B80097
:1004D0000030B9000130BA000030BB00893115216D
:1004E0008031A32AEF1B822A6F08031D812A6E0820
:1004F000031D812A98306C023A306D3B0318812A23
:10050000822A932A10304001B6000130B700023031
:10051000B8000030B9000130BA000030BB008931AA
:1005200015218031A32A10304001B6000030B700F9
:100530000230B8000030B9000130BA000030BB0012
:10054000893115218031080041016108B30060083C
:10055000B2005F08B1005E08B0007D080319B12A3F
:10056000B22ABC2B40010E19B62AB72AEC2A5B0826
:100570000319BB2ABC2ADC2A41012F08F3002E08EC
:10058000F2002D08F1002C08F0009631EB268231A4
:10059000F31BD72A7308031DD82A7208031DD82A13
:1005A000E93070020330713B031CD72AD82AEE2AA7
:1005B0004001DA01DA0AEE2A9531502582317308BA
:1005C0004101AF007208AE007108AD007008AC00C8
:1005D0004001DB01DB0AEE2ADB01DA0140015A08A7
:1005E0000319F32AF42A032B8831022082314001B7
:1005F000CD01CE014101B401B5014001CB01CC01D7
:10060000C901CA01B42B0E18062B072B0C2B650849
:10061000CE006408CD001E2B0C190F2B102B1C2BA9
:100620006409A2006509A300A20A0319A30A22080B
:10063000CD002308CE001E2BCD01CE018E18212B1C
:10064000222B3E2B4D084E04031D272B282B302B2D
:1006500063084101B500400162084101B400792BF3
:1006600041015B08B5005A08B40040016708410128
:10067000B100400166084101B000792B8C18412B74
:10068000422B722B4D084E04031D472B482B572B32
:100690006209A2006309A300A20A0319A30A22089F
:1006A0004101B400400123084101B500792B41010B
:1006B0005A094001A20041015B094001A300A20ABE
:1006C0000319A30A22084101B40040012308410193
:1006D000B500400167084101B100400166084101D1
:1006E000B000792B4101B401B5015D08B1005C088F
:1006F000B0008A31E922823140014C08A3004B0846
:10070000A200230DA30CA20C230DA30CA20C220803
:10071000F8002308F9004A08A5004908A400250D9F
:10072000A50CA40C250DA50CA40C2408FA00250882
:10073000FB00FC018A318F228231B42B8A313722AF
:1007400082312F3A031DA52BA62BB42B96312D26D3
:1007500082310030F3000030F2007530F1003030AB
:10076000F00095315A2582319431C0248231003A0B
:10077000031DBB2BBC2B9E2B08004001C1003C0875
:100780000319C32BC42BC82B9631D6268331CB2B10
:1007900096318226833155304001B6009830B7003B
:1007A00097317827833100304001B1000030B0002C
:1007B0000130AF002C30AE008931B52183310030DB
:1007C0004001B1000030B0000030AF000A30AE0090
:1007D0008931B521833140013C080319F02BF12BFD
:1007E000F92B1230B6009830B70097317827833153
:1007F000002C0930B6009830B70097317827833144
:1008000014304001BD003D08AE009030AF00013013
:10081000B000C0308E318E2683314001BE003E08CC
:10082000D8005230AF009830B000C0308D313C2538
:100830008331003A031D1D2C1E2C242C3030400126
:10084000BF000330C000292C30304001BF00003011
:10085000C0004008B7003F08B6006430B800003060
:10086000B900C830BA000030BB008931152183318E
:1008700024304001B6009830B70097317827833193
:100880001E304001BD003D08AE009030AF00013089
:10089000B000C0308E318E2683314001BE003E084C
:1008A000D8004C30AF009830B000C0308D313C25BE
:1008B00083314001BD003D08C20042080319612C8C
:1008C000622C802C4208053EBD003D08A6000C307D
:1008D000A7000030A80041088731CD278331303090
:1008E0004001B6000030B7006430B8000030B900F5
:1008F000C830BA000030BB008931152183318F2CFC
:100900000030B6000330B7006430B8000030B900E2
:10091000C830BA000030BB0089311521833108008E
:100920009631AC26843100304001B6009630B700D5
:1009300088315020843100304001B1000030B000D7
:100940000130AF00F430AE008931B521843155302B
:100950004001B6009830B7009731782784310030D5
:100960004001B1000030B0000030AF006430AE0094
:100970008931B521843155304001B6009830B70037
:1009800097317827843100304001B1000030B00049
:100990000030AF006430AE008931B52184310030C1
:1009A0004001B6009830B700973178278431003085
:1009B0004001B1000030B0000130AF00F430AE00B3
:1009C0008931B52184312D304001B6009830B7000F
:1009D00097317827843100304001B1000030B000F9
:1009E0000330AF00E830AE008931B521843180306A
:1009F0004001B6002530B7008831502084313630B0
:100A00004001B6009830B700973178278431103014
:100A10004001BC003C08AE006430AF000030B000C4
:100A2000C0308E318E2684314001BD003D08D80093
:100A30005230AF009830B000C0308D313C25843149
:100A4000003A031D242D252D2B2D30304001BE00F2
:100A50000330BF00302D30304001BE000030BF00F9
:100A60003F08B7003E08B6006430B8000030B90057
:100A7000C830BA000030BB00893115218431003004
:100A80004001B1000030B0000330AF00E830AE00EC
:100A90008931B521843196318226843108004001A4
:100AA000C3003C080319552D562D5A2D9631D626D4
:100AB00085315D2D96318226853100304001B100AF
:100AC0000030B0000330AF00E830AE008931B5210E
:100AD000853155304001B6009830B70097317827FE
:100AE000853109304001BD003D08AE006430AF00E3
:100AF0000030B000C0308E318E2685314001BE00FE
:100B00003E08D8005230AF009830B000C0308D3170
:100B10003C258531003A031D8E2D8F2D952D3030CB
:100B20004001BF000330C0009A2D30304001BF00AB
:100B30000030C0004008B7003F08B6006430B8007D
:100B40000030B900C830BA000030BB00893115212F
:100B5000853100304001B1000030B0000030AF00FE
:100B60000A30AE008931B521853140014308860045
:100B70000130870001080319BE2DBF2D0C2E3F3018
:100B8000B6009830B7009731782785314001430887
:100B9000AB000130AC000C30BD003D08AD00AE0133
:100BA000AE0A8B31452385311C304001BD003D0824
:100BB000AE00E830AF000330B000C0308E318E267A
:100BC00085314001BE003E08D8005230AF00983059
:100BD000B000C0308D313C258531003A031DF12D28
:100BE000F22DF82D00304001C1000330C200FD2D70
:100BF00030304001C1000030C2004208B700410857
:100C0000B6006430B8000030B900C830BA00003017
:100C1000BB0089311521853108008731592786317C
:100C20004001BC0154308331BD2386314001BC01F9
:100C3000BC0A48308331BD2386314001BC01BC0A67
:100C4000543085314F2586314001BC014830853113
:100C50004F2586319631C1268631942E463040018B
:100C6000B6009830B70097317827863105304001BB
:100C7000C4004408AE00E830AF000330B000C0301C
:100C80008E318E268631053A031D472E482E782E4A
:100C900046304001AF009830B000C0308D313C2567
:100CA0008631003A0319552E562E672E33304001F7
:100CB000B6000030B7000430B8000030B900013091
:100CC000BA000030BB00893115218631882E0030F2
:100CD0004001B6000330B7000430B8000030B9005E
:100CE0000130BA000030BB00893115218631882ED1
:100CF00030304001B6000330B7000430B800003097
:100D0000B9000130BA000030BB00893115218631AD
:100D100000304001B1000030B0000030AF00323090
:100D2000AE008931B52186319431A9248631003A4B
:100D3000031D9B2E9C2EA42E9431B0248631003AA4
:100D40000319A32EA42E2E2E963182268631003032
:100D50004001B1000030B0000330AF00E830AE0019
:100D60008931B521863108004001AE002E08AA0065
:100D70002A08AF0028082904031DBF2EC02EC12E4B
:100D8000582F2608AA002F08860087012A0881000C
:100D90002608AA0028082F07AB002B08FF3E860074
:100DA00087012A0881000030290203300319280234
:100DB0000318DB2EDC2EDD2E582F2608AA002F0A62
:100DC000860087012A0881002608AA002F08023E13
:100DD000860087012A0881002608AA0028082F0714
:100DE000AB002B08FE3E860087012A0881002608FA
:100DF000AA0028082F07AB002B08FD3E86008701BC
:100E00002A0881000030290207300319280203183C
:100E10000A2F0B2F0C2F582F2608AA002F08033E4D
:100E2000860087012A0881002608AA0028082F07C3
:100E3000AB002B08FC3E860087012A0881000030A9
:100E400029020930031928020318272F282F292FD8
:100E5000582F2F09AA003009AB00AA0A0319AB0AC0
:100E600003302A05AC0000302B05AD002C08AA0089
:100E70002A08AF072C08A8022D08A93BFC30A805BA
:100E8000FF30A905522F2608AA002F0886008701E7
:100E90002A0881000130A8020030A93B0130AA00D5
:100EA0002A08AF0728082904031D572F582F432F5E
:100EB00008009631AC26873180304001B6002530DD
:100EC000B70088315020873133304001B600003000
:100ED000B7006430B8000030B9008430BA00033085
:100EE000BB0089311521873155304001B60098305B
:100EF000B70097317827873100304001B1000030CA
:100F0000B0000030AF006430AE008931B5218731C8
:100F10001B304001B6009830B700973178278731F1
:100F200000304001B1000030B0000030AF00FA30B6
:100F3000AE008931B521873155304001B600983077
:100F4000B70097317827873100304001B100003079
:100F5000B0000130AF00F430AE008931B5218731E7
:100F60002D304001B6009830B7009731782787318F
:100F700000304001B1000030B0000130AF00F4306B
:100F8000AE008931B521873100304001B60096307E
:100F9000B70088315020873108004001AB00260897
:100FA000A9002908AD002B08A9002908AC00F02FE2
:100FB0002D088600013087000108A9002908AA0031
:100FC0000130A9002908AD072A08A9002C088600CD
:100FD00001308700290881000130A9002908AC07E9
:100FE0000130A7020030A83B270A031DFB2F280A67
:100FF000031DFB2FFC2FD82F080044010E140800FE
:1010000008000800E2308F3146278831E230F200D4
:101010000030F3000830F8007808F400F501F50A14
:101020008A310B22883108004001C0012B283D087D
:10103000B7003C08B6006430B8000030B90090300A
:10104000BA000130BB0089311521883101304001DF
:10105000BF003F08C0073E084002031C302831286B
:101060001728080007304001B6003608B7003708D7
:10107000B6003608D3000030B1000030B0000030B8
:10108000AF002830AE008931B5218831FF304001F2
:10109000B6003608B707B71F4E284F283728080074
:1010A0009630400137063604031D572858285D281E
:1010B000673042019B009C016228A03042019B00E6
:1010C00001309C0000304001B1000030B000003021
:1010D000AF00C830AE008931B52188310800013039
:1010E0004001C5070030C63D0030C73D0030C83D57
:1010F000FF304505F00003304605F100003047059C
:10110000F20000304805F3007308720471047004A3
:10111000031D8B288C288E28D901D90A0800440188
:101120008F01900106309100F9308D00E5308C0080
:101130004E01101044010D084101D90044010C0872
:101140004101D8004E011A1401304001A6000830B8
:10115000A700953111258831013044018E00080027
:1011600044019501960101309700FF30930006304D
:1011700092004E011011440113084101C5004401C1
:1011800012084101C4004E011A1503304001A600A7
:101190000030A700953123258831053044019400A3
:1011A0000800E9288A31BC22883195312C25883104
:1011B000003A031DDC28DD28E92800304001B10099
:1011C0000030B0000030AF000530AE008931B521ED
:1011D000883195312C258831003A031DF028F128FB
:1011E000D22808002030400168020318F828F928A6
:1011F00012296008A03E86000130870001084201E4
:101200009A000130F00070084001E00720306002D1
:10121000031C0B290C290D29E0010130F000700896
:10122000E80714294E011912080040013708A700E9
:101230003608A60097314427893140013808AE00AE
:101240003908AF00B001B1018931B52189310030D1
:101250004001A600A70097314427893140013A0890
:10126000AE003B08AF00B001B1018931B521893131
:10127000080000304001A600A7000C30A800003094
:10128000A900B6308631B42689312F304001B00034
:1012900030084101B60004304001B000300841017F
:1012A000B700B80186304001B00030084101B900F4
:1012B000BA010A304001B00030084101C100080005
:1012C00003304001A6000030A7005608013EA800E8
:1012D000003003180130A9008D31DE25893140012D
:1012E0002608C1004108D6005608C1004108AB00DD
:1012F00001309531B625893130304001BC000330D2
:10130000BD005608013EC1004108BE0088311420CE
:1013100089310800F10040016808031990299129DA
:101320008B294E01191A952996299A29710842018B
:101330009A00B22919127108F00040016108A03E1C
:10134000860001308700700881000130F0007008CD
:10135000E10720306102031CAE29AF29B029E10169
:101360000130E8024E011916080095316E258931C9
:1013700040012908B5002808B4002708B300260852
:10138000B2003508A9003408A8003308A7003208C5
:10139000A600973117278931400131082902031D22
:1013A000DB2930082802031DDB292F082702031D33
:1013B000DB292E082602031CDE29DF29C1290800AB
:1013C0004001B701B7013708B6003608D200003037
:1013D000B1000030B0000030AF002830AE008931DD
:1013E000B521893101304001B6003608B70737080A
:1013F000803A793E031CFD29FE29E329D201003001
:10140000A9000030A8002730A7001030A6009631B0
:101410007126893108007508031D0F2A102A2E2A0B
:101420004001680874020318162A172A352A2E2A42
:101430009431B7248A31003A03191F2A202A182A26
:101440007208840073088500000889318A218A3176
:101450000130F2070030F33D0130F4027408031D3F
:10146000322A332A182A0130362A00300800400177
:101470005D0803193C2A3D2A372A5E08203E860073
:10148000013087000108F0007008DC005E08203E93
:101490008600023087000108F0007008F10001307A
:1014A000F0007008DE0720305E02031C582A592A1B
:1014B0005A2ADE014E01991201304001DD024E012F
:1014C0009916710808004001A70068080319692AE5
:1014D0006A2A652A4E01191A6E2A6F2A742A400157
:1014E000270842019A008C2A191240012708A600F9
:1014F0006108A03E86000130870026088100013087
:10150000A6002608E10720306102031C882A892AE8
:101510008A2AE1010130E8024E0119160800790813
:10152000F1007808F000BB304001A0002008F20074
:101530008B3117238A317B08F1007A08F000BD3027
:101540004001A0002008F2008B3117238A31B63009
:101550008F3146278A31B630F2000030F3000C306C
:101560004001A0002008F4007C08A1002108F5003B
:101570008A310B228A31080040015D080319C12A13
:10158000C22ABC2A5E08203E86000130870001087E
:10159000A6002608DC005E08203E86000230870098
:1015A0000108A6002608A7000130A6002608DE07CD
:1015B00020305E02031CDD2ADE2ADF2ADE014E0116
:1015C000991201304001DD024E01991640012708B1
:1015D000080040014E08F1004D08F0004C08F300EF
:1015E0004B08F20041013308F5003208F4008D3158
:1015F0008A258A3171084001CC007008CB00410176
:101600003508F1003408F00040014A08F3004908A9
:10161000F20041013108F5003008F4008D318A25CF
:101620008A3171084001CA007008C9000800F6013B
:10163000F7017008F30072088600870173088100C3
:101640000130F3007308F2077108F4007008F3002A
:101650000830F500740DF40CF30CF50B2A2B73080D
:10166000F0007408F1000130F6070030F73D77080C
:10167000803AF30080307302031D402B0230760263
:10168000031C432B442B192B080040012E08031D7B
:101690004A2B4B2B6A2B68082D020318502B512B19
:1016A000712B6A2B953135258B31003A0319592B53
:1016B0005A2B522B40012B0884002C08850000086F
:1016C0008A3163228B3101304001AB070030AC3DE1
:1016D0000130AD022D08031D6E2B6F2B522B0130F4
:1016E000722B003008004001AA002A08A800280830
:1016F000A90050019E187D2B7E2B792B1E174001CF
:10170000260850019A0070309B00992B50011E143E
:101710001C084001A80029088600870128088100CC
:101720000130A8002808A9070130A80028085001A6
:101730009A0701304001A702270A031DA02BA12B05
:10174000862B080040015008013E0F39F000700858
:10175000D0005008031DAD2BAE2BC72B5308031927
:10176000B22BB32BB52B1913B62B1917520803192B
:10177000BA2BBB2BBD2B9912BE2B991651080319FE
:10178000C22BC32BC52B1912DC2B1916DC2B5308CB
:101790005002031CCC2BCD2BCE2B19175208500214
:1017A000031CD32BD42BD52B991651085002031CA4
:1017B000DA2BDB2BDC2B1916080040015F08203EDA
:1017C000860001308700810142011D1DE82BE92BB5
:1017D000F62B40015F08203E86000130870081140F
:1017E00041014F088A004E080A008B3142019D1CBE
:1017F000FA2BFB2B082C40015F08203E86000130AD
:101800008700011541014D088A004C080A008C31FF
:1018100040015F08203E860001308700010803195F
:10182000122C132C1A2C41014B088A004A080A007A
:101830008C311D2C9731AC278B3108004E01991249
:10184000DD304001A6000B30A7009431E4248C3138
:101850004E011912F2304001A6000830A700943161
:10186000ED248C31083042019F0090309D002430DF
:101870009E0067309B009C0173304001A60014302D
:10188000A7009431D2248C317F304001A60014305F
:10189000A7009431DB248C317B304001A60014304A
:1018A000A7009431C9248C314001DC01E101E00141
:1018B0002030A8002808E800DF01DE01DD014E012C
:1018C000991608004001D301D201D101D001CF0106
:1018D00095316E258C31400129084101A30040015A
:1018E00028084101A200400127084101A100400150
:1018F00026084101A0004001D401191799161916B4
:1019000001309531FD258C314001AE002E08D60006
:1019100000309531FD258C314001AE002E08D500F8
:10192000A230A6000B30A700953123258C3147301B
:101930004001A6001530A7009431FF248C314730B8
:101940004001A6001530A700953108258C3108000C
:101950002030400198007030990050309A001F30BC
:10196000920080309300AF30940080307E01CE0032
:10197000C3010130B800F030C4001630B900573050
:10198000CF00BA01C501D0013730BB00F030C6002E
:10199000FF30D1003F30BC00F030C700FF30D20034
:1019A0005510551154145415531053110030400163
:1019B000A6000830A7009431FF248C317430400118
:1019C000A6001430A700953108258C314E0116165B
:1019D0000F307E01A40015307D01CB0008004001CE
:1019E000AA002608A8002808A90050019E18F92C72
:1019F000FA2CF52C1E1740012A08FF3E50019A00D0
:101A000070309B009D01332D50019E18082D092D2B
:101A1000042D4001290886008701010850019C001F
:101A200001304001A8002808A9070130A8002808B3
:101A300050019A07400103108B1F1F2D202D212DCF
:101A4000031450011E1555309F00AA309F009E14AC
:101A50009E182B2D2C2D282D1E114001031C312DDD
:101A6000322D332D8B1701304001A702270A031DA9
:101A70003A2D3B2D042D08004001B6002F083004FC
:101A80000319432D442D882D3008A7002F08A600E8
:101A900097315E278D3140012708B5002608B40034
:101AA0007A2D3008A7002F08A6003508A9003408B1
:101AB000A80036088E31EA268D3140012608270419
:101AC000031D632D642D662D3608892D2F08840093
:101AD000300885000008B100B2013108A6003208C4
:101AE000A7003608013E973192278D314001B3009F
:101AF0003308B600360803197E2D7F2D882D360851
:101B00008600013087000108031D872D882D512D87
:101B10000030080072087002FB007308713BFC0083
:101B20007108FA007008F90070087104031D992DFE
:101B30009A2D9F2D0130F435F50D890B9B2D7408DE
:101B40007504031DA42DA52DA92D0130F40000302E
:101B5000F5007508803AF6007C08803A7602031D8D
:101B6000B32D7B0874020318B62DB72DBE2D740853
:101B70007207F9007508733DFA00D92D7409F60053
:101B80007509F700F60A0319F70A7C08803AF8008D
:101B90007708803A7802031DCF2D76087B02031860
:101BA000D22DD32DD92D74087202F9007508733B1C
:101BB000FA007A08F1007908F00008004001AC0151
:101BC000A91FE32DE42DEB2DA809A909A80A0319E3
:101BD000A90AAC01AC0AA71FEE2DEF2DF42DA60922
:101BE000A709A60A0319A70A260827040319F92D2D
:101BF000FA2D232EAB01AB0A062E0130A635A70D18
:101C0000890BFE2D0130AA002A08AB07A71F092E59
:101C10000A2EFD2D27082902031D102E2608280252
:101C2000031C132E142E182E2608A8022708A93BE1
:101C30000130A736A60C890B192E0130AB02031D0B
:101C4000222E232E0A2E2C080319272E282E2D2E65
:101C5000A809A909A80A0319A90A2908A700280898
:101C6000A60008004101280840014502AA004101E0
:101C700029084001463BAB0041012A084001473B8F
:101C8000AC0041012B084001483BAD002D08B100DC
:101C90002C08B0002B08AF002A08AE00410127082D
:101CA00040013102031D642E41012608400130022B
:101CB000031D642E4101250840012F02031D642EDF
:101CC0004101240840012E02031C672E682E712E4C
:101CD0000030A9000030A8000030A7000030A600A6
:101CE0008D2E2E08410124024001AA002F08410137
:101CF000253B4001AB0030084101263B4001AC00D0
:101D000031084101273B4001AD002D08A9002C08F6
:101D1000A8002B08A7002A08A60008004001BB0065
:101D200095316E258E3140012908B9002808B80088
:101D30002708B7002608B600BA01B92E95312C2520
:101D40008E31003A0319A52EA62EB92E8A31BC2257
:101D50008E314001B1003B08860001308700310818
:101D600081000130B1003108BB070130B1003108FA
:101D7000BA0740012E083A020318BF2EC02EE82EE3
:101D80003908A9003808A8003708A7003608A600B7
:101D9000973117278E3140012F08B1003008B2006B
:101DA000B301B4013408803AB5002908803A3502FD
:101DB000031DE42E28083302031DE42E27083202F7
:101DC000031DE42E260831020318E72EE82E9E2E6E
:101DD0003A0808004001AB002B08AA002A08AE0010
:101DE0002708AD002608AC000130A8020030A93B4E
:101DF000280A031DFF2E290A031DFF2E002F0F2F77
:101E0000A601A701452F0130AA002A08AE0701301C
:101E1000AC070030AD3D0130A8020030A93B2E08D0
:101E200086000130870001080319172F182F372F5C
:101E30002C0884002D08850012000319202F212F63
:101E4000372F280829040319262F272F372F2C086E
:101E500084002D0885000008AA002E0886000130A5
:101E6000870001082A060319362F372F032F2E0863
:101E70008600013087002C0884002D0885000008AA
:101E80000102A600A701031CA7030800F500750ABC
:101E9000860087010108053EF0007008F400F60195
:101EA000F701842F7508860087010108F000F10111
:101EB0007008F100F00176087006F60077087106E8
:101EC000F7000130F0007008F5070830F0007008E6
:101ED000F300F71F6C2F6D2F7A2F7708F10076082B
:101EE000F000F035F10D21307006F600103071066B
:101EF000F7007E2F7635F600770DF7000130F302FC
:101F0000031D832F842F692FFF30F0007008F40722
:101F1000F41F8B2F8C2F522F7608F0007508860047
:101F20008701700881000130F0007008F50777081C
:101F3000F000750886008701700881000130F0000C
:101F40007008F5070800973101278F319731C727AF
:101F50008F31893139218F31963197268F318C31EC
:101F600062248F318B170B17953183258F31953173
:101F700047258F318931E0218F3100304001B10098
:101F80000030B0000330AF00E830AE008931B52139
:101F90008F3195313E258F318031A2208F318E31A6
:101FA00032268F3140012908280427042604031D06
:101FB000DA2FDB2FF12F943183248F3188313220B7
:101FC0008F3163000000943175248F31003A03197A
:101FD000EA2FEB2FE32F8931E0218F3196316026F4
:101FE0008F3100304001B1000030B0000030AF0050
:101FF0003230AE008931B5218F31CC2F80315B2852
:1028E6000800080040015708080044010E100800BF
:1028F6009731AC279431080042011D121D160800BD
:1029060040019816D701080040019812D701D70A4E
:102916000800943178249431FD0108004E0190108E
:1029260095319C2594310800640080010131890BA2
:10293600982C0034FE0012001E00FE0B9E2C003464
:1029460018340134D03407340A34003403104001FB
:102956008D1F03140030093D0800031040010C1EB2
:1029660003140030093D080040016808031DBC2C13
:10297600BE2C0130BF2C0030080040015D08031D4D
:10298600C52CC72C0130C82C003008004001270890
:102996004101CB00400126084101CA000800400160
:1029A60027084101CF00400126084101CE0008005A
:1029B600400127084101CD00400126084101CC0015
:1029C6000800400127084101D100400126084101C5
:1029D600D0000800400127084101D3004001260825
:1029E6004101D2000800603051018D008F01910134
:1029F6000530930092010800400127084101C900F3
:102A0600400126084101C80008004001270841018D
:102A1600C700400126084101C600080040012708FA
:102A26004101D700400126084101D60008004001B7
:102A360027084101D500400126084101D4000800BD
:102A4600400127084101C300400126084101C20098
:102A5600080040015D08031D312D332D0130342D52
:102A66000030080040016808031D3A2D3C2D013056
:102A76003D2D00300800FD01FD0A96316026953196
:102A86008731FD27953108007E1C4B2D9431872C0C
:102A960040019812D701D70A080040014808F30000
:102AA6004708F2004608F1004508F00008007308E0
:102AB6004101A7007208A6007108A5007008A400CD
:102AC60008004F0196019701980199019A019B010F
:102AD6009C019D01080040014808A9004708A8007C
:102AE6004608A7004508A600080040015908031932
:102AF6007D2D7E2D812DD9010130822D00300800DB
:102B060000304001B6009630B7008831502095312C
:102B1600963182269531080041015608570403195B
:102B2600952D962D9B2D57088A0056080A0095313B
:102B360008004101540855040319A22DA32DA82D00
:102B460055088A0054080A009531080041014208D8
:102B560043040319AF2DB02DB52D43088A00420852
:102B66000A00953108004001AD002B30AC002C085E
:102B7600A600A701A70A2D088C31EF24953108007D
:102B86004E01101041015908F1005808F000963125
:102B96003E26953195318F25953108004E0110114D
:102BA60041014508F1004408F00096314F26953161
:102BB6009531A925953108004101480849040319B2
:102BC600E52DE62DEB2D49088A0048080A009531C7
:102BD6007E01551008004101460847040319F42DEB
:102BE600F52DFA2D47088A0046080A0095317E0120
:102BF600551108004001AC002C08AB002B08A600BC
:102C0600A701A70A2D308B317323953140012D087A
:102C16000800C8340034C83400341434003478341E
:102C260000342F3400340034FF34003400340034D0
:102C36000A347E01551C202E212E242E9531DF25A7
:102C460096317E01551D282E292E2C2E9531EE25E6
:102C560096310800400148084101AB004001470891
:102C66004101AA00400146084101A900400145086A
:102C76004101A800080044010E1D422E432E4A2E93
:102C86000E1071088D0070088C000E144E2E7108FF
:102C96008D0070088C0008004401141D532E542E1C
:102CA6005B2E1410710893007008920014145F2EA6
:102CB600710893007008920008004001480841011D
:102CC600AB00400147084101AA0040014608410106
:102CD600A900400145084101A80008004001290853
:102CE6004101A700400128084101A600400127082C
:102CF6004101A500400126084101A4000800153045
:102D06007D01CB000F307E01A4001630A6000030F6
:102D16004001B1000030B0000030AF000530AE0019
:102D26008931B52196310800A4304001A600023051
:102D3600A7009531112596314001CD01CE01410103
:102D4600B401B5014001CB01CC01C901CA01FD01A5
:102D5600080015307D01CB000F307E01A4000F3036
:102D6600A60000304001B1000030B0000030AF00D6
:102D76000530AE008931B5219631080013307D014A
:102D8600CB000F307E01A4001630A60000304001B3
:102D9600B1000030B0000030AF000530AE00893120
:102DA600B5219631080013307D01CB000F307E012E
:102DB600A6001430A40000304001B1000030B0007D
:102DC6000030AF000530AE008931B52196310800DC
:102DD600700840014502F4007108463BF500720890
:102DE600473BF6007308483BF7007708F300760880
:102DF600F2007508F1007408F000080095316425AA
:102E060097318C31A82497319431F6249731883143
:102E1600B020973197312D27973188318F20973100
:102E26008C311E2497310800400126084502AA006D
:102E36002708463BAB002808473BAC002908483B1F
:102E4600AD002D08A9002C08A8002B08A7002A0809
:102E5600A60008000130450190008F019101F9306C
:102E66008D008C014E0190109A1402304001A6008C
:102E76000030A70095311A259731C03045018E00E4
:102E86000800400126080F39A8002808D1002708A5
:102E9600A9002608A8000430A936A80C890B4F2FD4
:102EA60028080F39AA002A08D20027080F39A800D7
:102EB6002808D300080040012708AA002608A90010
:102EC600682F0130A6070030A73D26088400270892
:102ED60085001200031D702F712F642F290826020A
:102EE600A6002A08273BA70008008831D120973181
:102EF60040013708AC003608AB003708A700360893
:102F0600A60097315E27973140012608B800380899
:102F1600AD00AE01AE0A8B31452397310800400162
:102F2600A800280886000130870001082606031D30
:102F36009D2F9E2FA02F2808AB2F28088600013032
:102F46008700A80A0108031DA92FAA2F942F003075
:102F5600080042011908F00040015F08203E860083
:102F660002308700700881000130F0007008DF072A
:102F760020305F02031CC02FC12FC22FDF0101309A
:102F8600F0007008DD07080000304001C80000307E
:102F9600C7000030C6000030C50000304101AB005C
:102FA6000030AA000030A9000030A8004001D90175
:102FB6006F30A6000830A70095311A259731080012
:102FC60040015508013E0139C1004108D5005508A8
:102FD600C1004108AB0000309531B625973133303A
:102FE6004001BC000030BD005508013EC10041084B
:102FF600BE008831142097310800413454342B34F4
:103006004234413455344434303400344134543439
:103016002B3452344F344C3445343034003441343C
:1030260054342B3452344F344C3445343134003418
:10303600413454342B3442344134553444343234DC
:103046000034413454342B344134443444345234FF
:103056003F340034413454342B34523445345334E1
:10306600453454340034413454342B3452344534CA
:103076004E34453457340034413454342B344334BD
:103086004F344E34003448345534473453340A34BC
:10309600003441344434443452343A3400344F34E6
:0A30A6004B3400344134543400343C
:020000040001F9
:0A000E00EC3FFF379F3FFF3FFF3F2D
:04E00000000000001C
:00000001FF
